:10168D0000A8C0003F065B4F666D7D077F6F763803
:03169D0040001CEE
:090DE00007430052171109042514
:101331001216E578087C007D007E007F071208D038
:10134100E50AC4540FF50FE50A540FF51075110C99
:10135100E509C4540FF512E509540FF51375140C82
:10136100E508C4540FF515E508540FF51685121A52
:1013710085131B85141C85151DF51EAB11AD10AF12
:041381000F0215E75B
:1015320012162778087C007D007B007A0079437EB2
:10154200007F071208D0120BF17BFF7A1379317FEB
:10155200011212B47D07E4FF1216C31216F212141E
:03156200F480FB17
:100DE9005C00710007000000000000000000000026
:100DF90000000000000000000000000000000041A9
:070E0900006F644100700A54
:040A7600151F151F14
:100A7A0090006FE014F0D36480948050107464F096
:100A8A00A3E014F0648094805003740AF0E4F580C3
:100A9A0090008CE0FFB40800505F900AABF8282859
:100AAA0073020AC3020AC9020ACF020AD5020ADB82
:100ABA00020AE5020AEF020AF9C2A3C2A28016C21A
:100ACA00A3C2A2801AC2A3C2A2801EC2A3C2A280CB
:100ADA0022C2A3D2A2C2A1C2A08020C2A3D2A2C211
:100AEA00A1D2A08016C2A3D2A2D2A1C2A0800CC257
:100AFA00A3D2A2D2A1D2A08002D2A3C3EF648094CF
:100B0A0088504790008CE0FF3395E0FE747C2FF507
:100B1A008274003EF583E0FD900070E0FCD3ED6442
:100B2A0080F8EC648098402074732FF58274003E3C
:100B3A00F583E0FF3395E0FE74912FF58274163E3B
:100B4A00F583E493F580806E806990008CE0FF6401
:100B5A00087060EF3395E0FE74732FF58274003EDF
:100B6A00F583E0A81FF6A81F08E4F6A81F08E6FF09
:100B7A00C39408503774842FF582E43400F583E077
:100B8A00FF900070E0FED3EF6480F8EE6480985026
:100B9A0015A81F08E6FF7401A807088002C333D806
:100BAA00FCF4A81F56F6A81F080680BFA81FE6F582
:100BBA00808003E4F580900072E0FF90008CE004EE
:100BCA00FEF0D3EF6480F8EE6480984015E0D364B9
:100BDA0080948850057408F08008900071E09000B5
:020BEA008CF08D
:050BEC00051F051F229A
:10162700E4F5937594FF5395F043960F90002B7450
:0B163700FFF0A3740AF0A37476F02209
:0916C300900071EFF0A3EDF0229C
:1015E700900073EFF0A3EDF0A3EBF0A3E51AF0A3DF
:1015F700E51BF0A3E51CF0A3E51DF0A3E51EF02213
:0616EC0090007BEFF022EC
:10107F00EFF5823395E0F583E582F44583600590C3
:10108F00007CEFF0EDFF3395E0FEEFF44E6005903E
:10109F00007DEDF0EBFF3395E0FEEFF44E60059031
:1010AF00007EEBF0AF36EF3395E0FEEFF44E6006C7
:1010BF0090007FE536F0AF37EF3395E0FEEFF44E5B
:1010CF006006900080E537F0AF38EF3395E0FEEF24
:1010DF00F44E6006900081E538F0AF39EF3395E0BC
:1010EF00FEEFF44E6006900082E539F0AF3AEF3331
:0F10FF0095E0FEEFF44E6006900083E53AF02294
:10110E00EFF5823395E0F583E582F4458360059033
:10111E00008BEFF0EDFF3395E0FEEFF44E6005909F
:10112E00008AEDF0EBFF3395E0FEEFF44E60059094
:10113E000089EBF0AF3EEF3395E0FEEFF44E600624
:10114E00900088E53EF0AF3FEF3395E0FEEFF44EB2
:10115E006006900087E53FF0AF40EF3395E0FEEF7D
:10116E00F44E6006900086E540F0AF41EF3395E017
:10117E00FEEFF44E6006900085E541F0AF42EF338E
:0F118E0095E0FEEFF44E6006900084E542F022FB
:100E10004100000A41002A0A41006E0A042800002D
:100E20000000012D004600680000FFFF8FFFC10D8C
:100E3000C105C108C101C10E60240005FF16FEFFF7
:100E400016FEFF16FEFF16FEFF16FEFF16FEFF162D
:100E5000FEFF16FEFF16FEFF16FEFF16FEFF16FE35
:100E60006036002BFF16FEFF16FEFF16F8FF16FE7B
:100E7000FF16F8FF16FEFF16F8FF16FEFF16FEFF20
:100E800016FEFF16F8FF16F8FF16F8FF16F8FF1605
:0A0E9000FEFF16FEFF16FEFF16FE21
:0116FE0022C9
:0316F8007F00224E
:10142A00438E805389F07BE07A2879017800901600
:10143A008D120986121471EFF404F58A7BE07A287A
:10144A007901780090168D120986121471C3E49FEF
:10145A00FFE49EFE74019DFDE49CFC78081209726B
:07146A008F8CD28CD2A92265
:03000B000213D805
:0413D800C0E0C0D0E1
:1013DC00D5220A75224C300D02052DD20DA20372B6
:1013EC000450361524E5247030852624D207300AA3
:1013FC0017E52760071527438F01801D538FFEC209
:10140C00B5D52F15C20A80110525E525D3940640C4
:09141C0008C203E52C6002D206AF
:05142500D0D0D0E03240
:10138500300E47C20E90168D12098678101209721A
:101395008E4A8F4B900003E0FEA3E0FFE4FCFD7B4B
:1013A50019FAF9F8120923C006C007AE4AAF4BABCC
:1013B50007AA06E4F9F8D007D006121471780312CB
:1013C5000972900066EEF0A3EFF0900066E0FEA3D0
:0213D500E0FF37
:0113D70022F3
:0916CC00900068E0FEA3E0FF229B
:0916D500900068EEF0A3EFF02292
:1016B20090006CEEF0A3EFF090006AECF0A3EDF076
:0116C2002205
:0316FB00C2B42254
:03003B00020E9F13
:100E9F00C0E0C083C082C0D075D000C004C005C000
:030EAF0006C00773
:100EB20030DF04C2DF807D30DA04C2DA807630D9D6
:100EC2003DC2D9AFFBEFFEADEB7C00E42DFFEC3E63
:100ED20020000E900001F0A3EFF075DB11D200802C
:100EE20053FE900001E0FCA3E0FDC3EF9DFFEE9CEA
:100EF200A3F0A3EFF075DB00C200D20E803630D82B
:100F020033C2D8900068E07002A3E06022B2B490CD
:100F1200006AE0FEA3E0F5EAEEF5FAA3E0FEA3E044
:100F2200FF90006BE02FF090006AE03EF08005C277
:040F3200B453DAFEDC
:100F3600D007D006D005D004D0D0D082D083D0E060
:010F46003278
:0616F20012142AD2AF22FF
:101229003004047F0180027F00200A047E018002CD
:101239007E00EE5F6074E52EC39523506830023658
:10124900752701E52E131313541FAB30AA31A932A8
:10125900F5827583001208F6FFE52E540704FEEFA8
:10126900A806088002C333D8FC30D705752F038040
:101279002F752F01802AAB30AA31A93275F002E50A
:101289002EA4F58285F0831208F6F527E52E75F070
:1012990002A429F9EA35F0FA9000011208F6F52FAF
:0A12A900052ED20A22C204438F1062
:0112B3002218
:100CEF00900000E014F0701F740AF0D20590002AF3
:100CFF00E014F07012740AF0D20890006EE014F055
:100D0F007005740AF0D20190002BA3E0FAA3E0F96A
:100D1F001209A290002EA3E0FAA3E0F91209A29003
:100D2F00003AA3E0FAA3E0F91209A2900046A3E06B
:100D3F00FAA3E0F91209A2900055A3E0FAA3E0F993
:100D4F001209A290005EA3E0FAA3E0F91209A290A3
:100D5F00004CA3E0FAA3E0F91209A2EF600C900097
:100D6F001DA3E0FAA3E0F91209A290004FA3E0FA45
:100D7F00A3E0F91209A2EF600E900020A3E0FAA3FE
:100D8F00E0F91209A2D20B900029E0D39400401889
:100D9F00E014F0703030090C900023A3E0FAA3E0C8
:100DAF00F91209A2D20C801D900052A3E0FAA3E021
:100DBF00F91209A2EF600E900023A3E0FAA3E0F965
:100DCF001209A2D20C900005A3E0FAA3E0F90209E0
:010DDF00A271
:100FEC00900040A3E0FAA3E0F91209A2900043A3F9
:100FFC00E0FAA3E0F91209A2900034A3E0FAA3E00E
:10100C00F91209A2900008A3E0FAA3E0F91209A2D0
:10101C00900031A3E0FAA3E0F91209A2EF600C9062
:10102C000011A3E0FAA3E0F91209A2900037A3E0A3
:10103C00FAA3E0F91209A2EF600C900017A3E0FAF2
:10104C00A3E0F91209A2900049A3E0FAA3E0F91277
:10105C0009A2EF600C90001AA3E0FAA3E0F91209C0
:10106C00A230060EC206900026A3E0FAA3E0F91205
:03107C0009A222A4
:1014B50090000BA3E0FAA3E0F91209A290003DA366
:1014C500E0FAA3E0F91209A2EF600C900014A3E082
:1014D500FAA3E0F91209A2900058A3E0FAA3E0F9F3
:0F14E5001209A290005BA3E0FAA3E0F90209A2AA
:10159300AF2BAE2AAD29AC289000611209969000BA
:1015A30065E52DF0E4F52BF52AF529F528F52D90C1
:0B15B300000EA3E0FAA3E0F90209A279
:1014F400300705C207121229300D05C20D120CEF78
:10150400300505C205120FEC300805C2081214B5E7
:10151400300105C201121593E52B2401F52BE435A6
:0E1524002AF52AE43529F529E43528F5282290
:1012B4008B088A09890AEFB40C0050709012C7F8A1
:1012C4002828730212EB0212F00212F50212FA023B
:1012D40012FF02130402130902130E021313021362
:1012E4001802131D02132290000580359000088017
:1012F4003090000B802B90000E80269000118021EE
:10130400900017801C900014801790001A8012908F
:10131400001D800D90002080089000238003900021
:0D13240026E508F0A3E509F0A3E50AF02294
:0716DE007B017A0079612213
:040E9A00410095017D
:10164200C295E4FEEF1392CC000000D29500EFC3E6
:0816520013FFC2950EBE08EC67
:01165A00226D
:10165B00E4FFFEEFC313FF30CC03430780D29500AA
:08166B000000C2950EBE08EB61
:011673002254
:10156500F07F85121578A3EFF07F87121578A3EF2A
:03157500F07F897B
:10157800C296000000C295000000D29600121642E2
:0A15880012165BD295000000C29617
:011592002236
:03160700A3E0FD60
:10160A00C296000000C295000000D296001216424F
:0D161A00AF05121642D295000000C29622C4
:0716E5007B017A00798E22DF
:10167400788E7C007D017B007A00790F7E007F07E5
:091684001208D0E4900095F02258
:1016A000EFD3941F5009EF25E044C1FF0215787F66
:0216B000012215
:1015BE00AC07AB05ECD3941F501CE4FD7F8E1216C6
:1015CE000AEC25E044C0FFAD0312160A7D807F8E23
:0915DE0012160A7F00227F01228F
:020F4700151F74
:100F4900900095E060447F81121578A81FEFF69014
:100F5900008EE06F7003020FE9A81FE6F07F83128D
:100F69001578A81FEFF6A3E06F6075A81FE61215A4
:100F790065A3EFF07F8D121578900094EFF07F8BC9
:100F8900121578900093EFF0805690008DE0FF04E1
:100F9900F0EFC3940A4049E4F090009504F0E4FDB1
:100FA9007F8E12160A90008EE0FD7F8012160A7F4E
:100FB900821216077F84121607A3E0FD7F86121698
:100FC9000AA3E0FD7F8812160AA3E0FD7F8A1216A4
:100FD9000AA3E0FD7F8C12160A7D807F8E12160A05
:030FE900051F22BF
:100BF1007F8112157890008EEFF07F83121578A314
:100C0100EF121565A3EFF07F8B121578A3EFF07F3C
:100C11008D121578A3EFF0E4FD7F8E12160A7F1E68
:100C21001216A0EF64A560047F0180027F0090008E
:100C31008EE05480FEA3E0D3945940047D018002EC
:100C41007D00ED4EFE900090E0D394A440047D0120
:100C510080027D00ED4EFE900091E0D3943140047E
:100C61007D0180027D00ED4EFE900092E0D3941252
:100C710040047D0180027D00ED4EFE900093E0D3A3
:100C8100940740047D0180027D00ED4EFE900094AA
:100C9100E0D3949940047D0180027D00ED4E4F60C8
:100CA10030780F7C007D007B007A0079087E007F20
:100CB100071208D01216747DA57F1E1215BE788EFC
:100CC1007C007D017B007A0079087E007F07120895
:100CD100D07DA97F9012160A7D807F8E12160A9010
:0E0CE100005B74FFF0A3740FF0A37447F022C1
:0300000002119D4D
:0C119D00787FE4F6D8FD75814B0211E468
:10080000E709F608DFFA8046E709F208DFFA803EDA
:1008100088828C83E709F0A3DFFA8032E309F608C7
:10082000DFFA8078E309F208DFFA807088828C832F
:10083000E309F0A3DFFA806489828A83E0A3F608E3
:10084000DFFA805889828A83E0A3F208DFFA804CBD
:1008500080D280FA80C680D4806980F28033801094
:1008600080A680EA809A80A880DA80E280CA8033FD
:1008700089828A83ECFAE493A3C8C582C8CCC58375
:10088000CCF0A3C8C582C8CCC583CCDFE9DEE78045
:100890000D89828A83E493A3F608DFF9ECFAA9F0C4
:1008A000EDFB2289828A83ECFAE0A3C8C582C8CC1A
:1008B000C583CCF0A3C8C582C8CCC583CCDFEADE33
:1008C000E880DB89828A83E493A3F208DFF980CC95
:1008D00088F0EF60010E4E60C388F0ED2402B4048E
:1008E0000050B9F582EB2402B4040050AF23234535
:0608F00082239008507302
:1008F600BB010CE58229F582E5833AF583E02250B7
:1009060006E92582F8E622BBFE06E92582F8E22200
:0D091600E58229F582E5833AF583E493221A
:10092300E88FF0A4CC8BF0A42CFCE98EF0A42CFC73
:100933008AF0EDA42CFCEA8EF0A4CDA8F08BF0A4F1
:100943002DCC3825F0FDE98FF0A42CCD35F0FCEB50
:100953008EF0A4FEA9F0EB8FF0A4CFC5F02ECD3915
:0F096300FEE43CFCEAA42DCE35F0FDE43CFC2282
:10147100C2D5E830E70FB2D5E4C39BFBE49AFAE4A6
:1014810099F9E498F8EC30E717B2D51214A71209CC
:10149100E4E4C39BFBE49AFAE499F9E498F8800345
:1014A1001209E430D50DE4C39FFFE49EFEE49DFDE7
:0414B100E49CFC2299
:10097200E86010ECA2E713FCED13FDEE13FEEF139B
:04098200FFD8F02288
:10098600E493FC740193FD740293FE740393FF22B7
:0C099600ECF0A3EDF0A3EEF0A3EFF022D4
:0609A2008A838982E473E0
:1011A900021532E493A3F8E493A34003F68001F215
:1011B90008DFF48029E493A3F85407240CC8C33347
:1011C900C4540F4420C8834004F456800146F6DF16
:1011D900E4800B0102040810204080900DE0E47EB9
:1011E900019360BCA3FF543F30E509541FFEE4930B
:1011F900A360010ECF54C025E060A840B8E493A3D2
:10120900FAE493A3F8E493A3C8C582C8CAC583CAFC
:10121900F0A3C8C582C8CAC583CADFE9DEE780BEB4
:010E9E000053
:1009A80075F008758200EF2FFFEE33FECD33CDCC06
:1009B80033CCC58233C5829BED9AEC99E582984089
:1009C8000CF582EE9BFEED9AFDEC99FC0FD5F0D666
:1009D800E4CEFBE4CDFAE4CCF9A88222B800C1B990
:1009E8000059BA002DEC8BF084CFCECDFCE5F0CBCE
:1009F800F97818EF2FFFEE33FEED33FDEC33FCEB07
:100A080033FB10D703994004EB99FB0FD8E5E4F9C1
:100A1800FA227818EF2FFFEE33FEED33FDEC33FCAE
:100A2800C933C910D7059BE99A4007EC9BFCE99AA2
:100A3800F90FD8E0E4C9FAE4CCFB2275F010EF2FE7
:100A4800FFEE33FEED33FDCC33CCC833C810D707E7
:100A58009BEC9AE899400AED9BFDEC9AFCE899F822
:0E0A68000FD5F0DAE4CDFBE4CCFAE4C8F922B5
:00000001FF
