:1017F60000A8C0003F065B4F666D7D077F6F777C54
:10180600395E79713D76061E753815545C736B50DA
:101816006D783E1C2A766E5B5F7C585E7B714080DD
:101826000063000825042704310427043104320428
:101836003320000826083108330832083108270803
:10184600250800082604270431042704310432043D
:101856003320000826083104330835040010000838
:1018660026083104260431042604310426043104F2
:1018760026042608310831043208271400082604F5
:1018860026043104260431042604310426042604E1
:0E1896002604330833083204310827240010DA
:10121C00020A000002080001021B0000021D00016E
:0F122C0002110001011A02020C00010218AA555A
:1021D900AF15851633851634EF64016003BF020815
:1021E900751D00751E028013EF7007F51D751E0120
:1021F9008009BF0306751D00751E03BF0305E4F5BD
:0322090008F509CC
:01220C0022AF
:1010AC00851533851634E5337078E5347002807716
:1010BC00E534B4011575381D753928753A26753B1C
:1010CC001D753C2A7B287D0D8053E534B4021575C3
:1010DC003818753920753A1C753B28753C2A7B1BD2
:1010EC007D0B8039E534B4031875381275391475D5
:1010FC003A24753B11753C2A7B287D117F1C02120A
:10110C0018E5346404600302121B75381B75391D15
:10111C00753A11753B2A753C2A7B247D0E7F2A0279
:10112C001218E533B4011875381D753912753A1556
:10113C00753B1E753C1C7B1E7D0A7F17021218E541
:10114C0033B4031875382A75390D753A0A753B2373
:10115C00753C0E7B1D7D0E7F10021218E53364105A
:10116C00600302121BE534B4011875381875390C7C
:10117C00753A14753B2A753C2A7B157D0C7F2A0227
:10118C001218E534B4021775380A753916753A2AEF
:10119C00753B2A753C2A7B0C7D2A7F2A806EE534B0
:1011AC00B4031775380E753916753A19753B2A75CF
:1011BC003C2A7B1D7D2A7F2A8052E534B4041775A6
:1011CC00380A753910753A2A753B2A753C2A7B16F4
:1011DC007D2A7F2A8036E534B4051775381C75399D
:1011EC0012753A0C753B2A753C2A7B1E7D167F2A9C
:1011FC00801AE534B40618753818753916753A0B1B
:0F120C00753B2A753C2A7B0B7D2A7F2A12230A09
:01121B0022B0
:10239E00E4FF12211CBF01057F011222C27F011230
:0B23AE00211CBF01057F021222C22289
:101D6A0012244DEF700EE50945087008051CE51CA4
:101D7A007002051BD3E51C9404E51B648094804023
:101D8A0005E4F51BF51CE5094508700FE51C64011F
:101D9A00451B70077D19FC7F0B8028E509450870F3
:101DAA000FE51C6402451B70077D19FC7F4B8013ED
:101DBA00E50945087012E51C6403451B700A7D1984
:101DCA00FC7F937E02021EEFE50945087018E51CA8
:101DDA006404451B70107D50FC7F107E03121EEFB9
:071DEA0075080075090122D4
:10173D00E51E6401451D700CE51264014511700430
:10174D007F55804AE51E6401451D700EE512B4FFFC
:10175D0009E511B4FF047FAA8034E51E6402451D1E
:10176D007004AF1A8028E51E6403451D700CE51248
:10177D006401451170047FFF8014E51E6403451D4F
:10178D00700FE512B4FF0AE511B4FF05E4FF122452
:10179D0086AE11AF127CFF7DFF120B518E118F1291
:1017AD00E51AC39480500FE50D6401450C7007E5F3
:1017BD001A25E0F51A22E51AD394014011E50DB46E
:1017CD00FF0CE50CB4FF07E51AC313F51A22E51A51
:1017DD0064806005E51AB4010FAE0CAF0D7CFF7D82
:0917ED00FF120B518E0C8F0D222E
:03249E00021D6AB2
:10232A00122412BF0116750EAA750F557510017B7E
:0C233A00007A00790E7D037C0012223E28
:012346002274
:1020DA0012248C8F33E533B4011C750EAA750F5583
:1020EA007510027B007A00790E7D037C0012223E75
:1020FA00E4F508F50922E533B40216750EAA750F40
:10210A00557510037B007A00790E7D037C0012223C
:01211A003E86
:01211B0022A1
:1018A400E4F537FF7EC27D01FC1216821223B912C1
:1018B40023641223811224211222EA1223477D0772
:1018C400E4FF122464753800753900753A18753BC5
:1018D40000753C027B007A0079137D057C0012229E
:1018E4000D7BFF7A18792875380075397C753AF2C2
:1018F4007DFA7F6E121DF17BFF7A2079DA7F051263
:101904001E727BFF7A23792A7F06121E727BFF7A6E
:1019140023799E7F04121E727BFF7A2179D97F0A74
:10192400121E727BFF7A1079AC7F03121E727BFF4A
:101934007A17793D7F02121E727BFF7A24799E7F8B
:0C19440001121E7212249212219B80FBE3
:04229A001550155076
:10229E0012246DA850A60608A607A850E6FE08E66A
:0F22AE00FF4E600BEF24FFFFEE34FFFE1224768D
:0522BD00055005502250
:1022EA0053B1EF43B2101224A4E4F5D975DA49D2F6
:1022FA00DE90004074FFF0A37422F0A3749AF022D7
:081EEF008E398F3A8C3B8D3CCB
:101EF70012246DEF4E7066AF3CAE3B122476C3E5FD
:101F07003A940AE5399400404BE47B18FAF9F890C3
:101F170017F6120D28120C6FC006C007AE39AF3A7C
:101F2700AB07AA06E4F9F8D007D006120C6FAB0787
:101F3700AA06AFF9EFFEADE97C00E42DFFEC3ECF3A
:101F47002BCF3AAD07FCAF03AE021223D4D2D8434E
:0F1F5700DA0180061224A453DAFE7F02227F03F0
:011F66002258
:0C244D0012246DEF4E7002FF227F01226E
:10123B005C007100070000000000000000000000CF
:10124B000000000000000000000000000000004152
:07125B00006F644100700AFE
:040F310015501550F2
:100F350090006FE014F0D36480948050107464F0D6
:100F4500A3E014F0648094805003740AF0E4F58003
:100F550090008CE0FFB40800505F900F66F82828D9
:100F650073020F7E020F84020F8A020F90020F9602
:100F7500020FA0020FAA020FB4C2A3C2A28016C21A
:100F8500A3C2A2801AC2A3C2A2801EC2A3C2A2800B
:100F950022C2A3D2A2C2A1C2A08020C2A3D2A2C251
:100FA500A1D2A08016C2A3D2A2D2A1C2A0800CC297
:100FB500A3D2A2D2A1D2A08002D2A3C3EF6480940F
:100FC50088504790008CE0FF3395E0FE747C2FF548
:100FD5008274003EF583E0FD900070E0FCD3ED6483
:100FE50080F8EC648098402074732FF58274003E7D
:100FF500F583E0FF3395E0FE74FA2FF58274173E12
:10100500F583E493F580806E806990008CE0FF6441
:10101500087060EF3395E0FE74732FF58274003E1F
:10102500F583E0A850F6A85008E4F6A85008E6FFB6
:10103500C39408503774842FF582E43400F583E0B7
:10104500FF900070E0FED3EF6480F8EE6480985066
:1010550015A85008E6FF7401A807088002C333D815
:10106500FCF4A85056F6A850080680BFA850E6F52F
:10107500808003E4F580900072E0FF90008CE0042E
:10108500FEF0D3EF6480F8EE6480984015E0D364F9
:1010950080948850057408F08008900071E09000F5
:0210A5008CF0CD
:0510A700055005502278
:1023B900E4F5937594FF5395F043960F90002B74B1
:0B23C900FFF0A3740FF0A37431F022AA
:09246400900071EFF0A3EDF022ED
:10230A00900073EFF0A3EDF0A3EBF0A3E538F0A390
:10231A00E539F0A3E53AF0A3E53BF0A3E53CF0226A
:0624860090007BEFF02244
:101B3500EFF5823395E0F583E582F4458360059002
:101B4500007CEFF0EDFF3395E0FEEFF44E6005907D
:101B5500007DEDF0EBFF3395E0FEEFF44E60059070
:101B6500007EEBF0AF40EF3395E0FEEFF44E6006FC
:101B750090007FE540F0AF41EF3395E0FEEFF44E86
:101B85006006900080E541F0AF42EF3395E0FEEF4F
:101B9500F44E6006900081E542F0AF43EF3395E0E7
:101BA500FEEFF44E6006900082E543F0AF44EF335C
:0F1BB50095E0FEEFF44E6006900083E544F022C9
:101BC400EFF5823395E0F583E582F4458360059073
:101BD400008BEFF0EDFF3395E0FEEFF44E600590DF
:101BE400008AEDF0EBFF3395E0FEEFF44E600590D4
:101BF4000089EBF0AF48EF3395E0FEEFF44E60065A
:101C0400900088E548F0AF49EF3395E0FEEFF44EDD
:101C14006006900087E549F0AF4AEF3395E0FEEFA8
:101C2400F44E6006900086E54AF0AF4BEF3395E042
:101C3400FEEFF44E6006900085E54BF0AF4CEF33B9
:0F1C440095E0FEEFF44E6006900084E54CF02230
:101262004100C100011F004100BE054100BF834192
:0312720000C08336
:102097002092069000BFE014F09000BEE014F070AC
:1020A700317405F0A3E0FFC39480500BA3E0948044
:1020B7004015751F01800C9000C0E0C39480500745
:1020C700751F02A37401F09000C0EFF09000BF7479
:0220D70083F094
:0120D90022E4
:0223E500155091
:0A23E7009000C1E0A850F6FFE4F0FA
:0323F10005502272
:1023470090003774FFF0A37423F0A374E5F09000B6
:0D2357003474FFF0A37420F0A37497F022FB
:05248C00AF1FE4F51F85
:012491002228
:101275004100B4004900B5949400949400949400FE
:041285004100B31E53
:02134400155042
:1013460020B2069000B5E014F020B3069000B8E095
:1013560014F02097069000BBE014F09000B3E01460
:10136600F06003021468741EF0A850E4F6A850E674
:10137600FFC3648094834003021468EF3395E0FE54
:101386009000B575F003EF120D44EE75F003A42539
:1013960083F583E0C39480503B9000B675F003EF6D
:1013A600120D44EE75F003A42583F583E0D39480F3
:1013B600405EE6FF3395E0FE9000B775F003EF124E
:1013C6000D44EE75F003A42583F5837401F09000B7
:1013D600B4F0803CA850E6FF3395E0FE9000B67569
:1013E600F003EF120D44EE75F003A42583F583E0B8
:1013F600C39480501B9000B775F003EF120D44EEB6
:1014060075F003A42583F5837402F09000B414F0FC
:10141600A850E6FFFD3395E0FC9000B575F003EDAE
:10142600120D44EC75F003A42583F583E0FE9000CD
:10143600B675F003ED120D44EC75F003A42583F5A3
:1014460083EEF0EF3395E0FE9000B575F003EF12F2
:101456000D44EE75F003A42583F5837494F006021B
:021466001373FE
:031468000550220A
:0223F400155082
:0A23F6009000B4E0A850F6FFE4F0F8
:0324000005502262
:1023640090003174FFF0A37423F0A374F4F0900090
:0D2374002E74FFF0A37413F0A37444F02244
:10211C00EF600764016003BF0233EFFD3395E0FC11
:10212C009000B775F003ED120D44EC75F003A42587
:10213C0083F583E0FE9000B775F003ED120D44ECCF
:0F214C0075F003A42583F583E4F0AF06227F032B
:01215B002261
:101289004100000A41002A0A41006E0A04280000B0
:101299000000012D004600680000FFFF8FFFC10D0F
:1012A900C105C108C101C10E60240005FF24A7FFC3
:1012B90024A7FF24A7FF24A7FF24A7FF24A7FF240F
:1012C900A7FF24A7FF24A7FF24A7FF24A7FF24A77C
:1012D9006036002BFF24A7FF24A7FF24A1FF24A722
:1012E900FF24A1FF24A7FF24A1FF24A7FF24A7FF10
:1012F90024A7FF24A1FF24A1FF24A1FF24A1FF24E7
:0A130900A7FF24A7FF24A7FF24A7D5
:0124A7002212
:0324A1007F002297
:10200C00438E805389F07BE07A2879017800901711
:10201C00F6120D28122053EFF404F58A7BE07A288F
:10202C00790178009017F6120D28122053C3E49F03
:10203C00FFE49EFE74019DFDE49CFC7808120D14D7
:07204C008F8CD28CD2A92277
:03000B00021FBA17
:041FBA00C0E0C0D0F3
:101FBE00D5220A75224C300D02052DD20DA20372C8
:101FCE000450361524E5247030852624D207300AB5
:101FDE0017E52760071527438F01801D538FFEC21B
:101FEE00B5D52F15C20A80110525E525D3940640D7
:091FFE0008C203E52C6002D206C2
:05200700D0D0D0E03252
:101F6700300E47C20E9017F6120D287810120D1476
:101F77008E4D8F4E900003E0FEA3E0FFE4FCFD7B57
:101F870019FAF9F8120BE4C006C007AE4DAF4EAB15
:101F970007AA06E4F9F8D007D006122053780312EF
:101FA7000D14900066EEF0A3EFF0900066E0FEA33C
:021FB700E0FF49
:011FB9002205
:09246D00900068E0FEA3E0FF22EC
:09247600900068EEF0A3EFF022E3
:1023D40090006CEEF0A3EFF090006AECF0A3EDF047
:0123E40022D6
:0324A400C2B4229D
:03003B000219FAAD
:1019FA00C0E0C083C082C0D075D000C004C005C09A
:031A0A0006C0070C
:101A0D0030DF04C2DF807D30DA04C2DA807630D96F
:101A1D003DC2D9AFFBEFFEADEB7C00E42DFFEC3EFC
:101A2D0020000E900001F0A3EFF075DB11D20080C5
:101A3D0053FE900001E0FCA3E0FDC3EF9DFFEE9C83
:101A4D00A3F0A3EFF075DB00C200D20E803630D8C4
:101A5D0033C2D8900068E07002A3E06022B2B49067
:101A6D00006AE0FEA3E0F5EAEEF5FAA3E0FEA3E0DE
:101A7D00FF90006BE02FF090006AE03EF08005C211
:041A8D00B453DAFE76
:101A9100D007D006D005D004D0D0D082D083D0E0FA
:011AA1003212
:0624920012200CD2AF2263
:101CDF003004047F0180027F00200A047E0180020D
:101CEF007E00EE5F6074E52EC39523506830023698
:101CFF00752701E52E131313541FAB30AA31A932E8
:101D0F00F582758300120B02FFE52E540704FEEFD8
:101D1F00A806088002C333D8FC30D705752F03807F
:101D2F002F752F01802AAB30AA31A93275F002E549
:101D3F002EA4F58285F083120B02F527E52E75F0A0
:101D4F0002A429F9EA35F0FA900001120B02F52FDF
:0A1D5F00052ED20A22C204438F10A1
:011D69002257
:10159100900000E014F0701F740AF0D20590002A48
:1015A100E014F07012740AF0D20890006EE014F0AA
:1015B1007005740AF0D20190002BA3E0FAA3E0F9C0
:1015C100120D5090002EA3E0FAA3E0F9120D5090F5
:1015D100003AA3E0FAA3E0F9120D50900046A3E00F
:1015E100FAA3E0F9120D50900055A3E0FAA3E0F937
:1015F100120D5090005EA3E0FAA3E0F9120D509095
:10160100004CA3E0FAA3E0F9120D50EF600C90003A
:101611001DA3E0FAA3E0F9120D5090004FA3E0FAE8
:10162100A3E0F9120D50EF600E900020A3E0FAA3A1
:10163100E0F9120D50D20B900029E0D3940040182C
:10164100E014F0703030090C900023A3E0FAA3E01D
:10165100F9120D50D20C801D900052A3E0FAA3E0C4
:10166100F9120D50EF600E900023A3E0FAA3E0F908
:10167100120D50D20C900005A3E0FAA3E0F9020D7F
:011681005018
:101AA200900040A3E0FAA3E0F9120D50900043A386
:101AB200E0FAA3E0F9120D50900034A3E0FAA3E09B
:101AC200F9120D50900008A3E0FAA3E0F9120D50AC
:101AD200900031A3E0FAA3E0F9120D50EF600C90F0
:101AE2000011A3E0FAA3E0F9120D50900037A3E031
:101AF200FAA3E0F9120D50EF600C900017A3E0FA80
:101B0200A3E0F9120D50900049A3E0FAA3E0F91204
:101B12000D50EF600C90001AA3E0FAA3E0F9120D49
:101B22005030060EC206900026A3E0FAA3E0F91296
:031B32000D502231
:10215C0090000BA3E0FAA3E0F9120D5090003DA300
:10216C00E0FAA3E0F9120D50EF600C900014A3E01C
:10217C00FAA3E0F9120D50900058A3E0FAA3E0F98D
:0F218C00120D5090005BA3E0FAA3E0F9020D5092
:10226F00AF2BAE2AAD29AC28900061120D3890002B
:10227F0065E52DF0E4F52BF52AF529F528F52D90D8
:0B228F00000EA3E0FAA3E0F9020D50DE
:10219B00300705C207121CDF300D05C20D12159159
:1021AB00300505C205121AA2300805C20812215CBF
:1021BB00300105C20112226FE52B2401F52BE4350A
:0E21CB002AF52AE43529F529E43528F52822DD
:101E72008B338A348935EFB40C005070901E85F88C
:101E8200282873021EA9021EAE021EB3021EB80249
:101E92001EBD021EC2021EC7021ECC021ED1021E9F
:101EA200D6021EDB021EE0900005803590000880FD
:101EB2003090000B802B90000E8026900011802124
:101EC200900017801C900014801790001A801290C6
:101ED200001D800D90002080089000238003900058
:0D1EE20026E533F0A3E534F0A3E535F0224A
:07247F007B017A0079612264
:081313004100C3004100C200CB
:0E243F0020A40A9000C37401F09000C2F022A5
:02240300155072
:0A2405009000C3E0A850F6FFE4F0D9
:03240F0005502253
:1023810090003D74FFF0A37424F0A37403F0900057
:0D2391003A74FFF0A37424F0A3743FF0220F
:02241200155063
:0A2414009000C2E0A850F6FFE4F0CB
:03241E0005502244
:10146B0000C400DC00F701060126014A0172018865
:10147B0001B801EE020B024B029302E4031003705E
:10148B0003DC04160497052605C800DC00F70115DC
:10149B000126014A0172019F01B801EE022A024B9B
:1014AB00029302E4033F037003DC04550497052603
:1014BB0005C8067D00F701150137014A0172019F2E
:1014CB0001D201EE022A026E029302E4033F03A44F
:1014DB0003DC045504DD057505C8067D07490106C7
:1014EB000126014A015D018801B801EE020B024B96
:1014FB00029302BA0310037003DC0416049705264B
:10150B000575062006E007B80126014A017201881D
:10151B0001B801EE022A024B029302E4031003709E
:10152B0003DC04550497052605C8062006E007B81A
:10153B0008AA014A0172019F01B801EE022A026E4C
:10154B00029302E4033F037003DC045504DD05261C
:10155B0005C8067D06E007B808AA09B9015D018830
:10156B0001B801D2020B024B029302BA03100370B3
:10157B0003A40416049705260575062006E0074903
:06158B00082D092D0A4D98
:10131B004D00A603000000000000000000000000CC
:061950008F338D348B354E
:1019560012244DEF60037F0122E535D39400400643
:10196600E53594114028E535D394174006E53594BE
:1019760021401BE535D394274006E5359431400ECA
:10198600E535D394375007E533C394F950037F0305
:1019960022E535603DC4540F75F007A4FDACF0E5B3
:1019A6003375F015A42DFFE5F03CFEE53554077CB4
:1019B600002FFFEC3EFEEF25E0FFEE33FE74812F95
:1019C600F58274EB3EF583E493F537740193F538AD
:1019D6008005E4F537F538AF367E007C017D771259
:1019E6000B51AD341C120B63AD07AC06AF38AE37E6
:0319F600121EEFCF
:0119F90022CB
:04080000155015502A
:1008040012244DEF70047F0180027F009000A6E067
:10081400FEB402047D0180027D00ED5F6003020AE4
:10082400FDEEB40316E49000A4F0A3F09000AFF042
:10083400A3F0A3F0A3F0C20F020AFD9000A7E0FF0B
:10084400B4F3047E0180027E00EFB4F1047F0180E2
:10085400027F00EF4E603E9000A9E0FE75F06484D4
:10086400FFEE75F00A8475F00A84ADF0E075F00AC5
:1008740084ABF075380A9000A8E02407F53990009D
:10088400A3E0FEC4540F240AF53A753B0AEE54075C
:10089400F53C12230A9000A7E0FFB4F3047E018024
:1008A400027E00EFB4F2047F0180027F00EF4E70FD
:1008B400030209569000A9E0FD7C007E177F7012A8
:1008C4000B63A850A607E6F975F002A4FFC39000D5
:1008D400B2E09F9000B1E095F05070E0FEA3E0FF1D
:1008E4007C007D0B120B51E9FBFD120B63A8500831
:1008F400A6079000B1E475F001120BCEFED3E5F02B
:100904009BEE94004018A85008E624F9FFE47EF01A
:10091400A807088005CEC313CE13D8F9801FA850AA
:1009240008E6FF740F7E00A807088005C333CE33A2
:10093400CED8F97804CEA2E713CE13D8F8A850087D
:10094400F6A85008E6FF1224868007E49000B1F070
:10095400A3F09000ADE0FEA3E0FFC39000B0E09FE1
:100964009000AFE09E4003020AF712244DEF6003AB
:10097400020AFD9000AAE0FBA3E0FAA3E0F99000CC
:10098400AFE0FEA3E0F5828E83120B02FFD394370F
:100994005003020A92EF241024FC5079604524FE8F
:1009A4007003020A3D147003020A53240260030216
:1009B4000A819000AAE0FBA3E0FAA3E0F99000AF5B
:1009C400E475F001120BB885F082F583120B0290E6
:1009D40000A8F09000B0E004F070989000AFE0043C
:1009E400F080909000AAE0FBA3E0FAA3E0F9900065
:1009F400AFE475F001120BB885F082F583120B0297
:100A04009000A9F09000B0E004F0706E9000AFE0A8
:100A140004F00209779000AAE0FBA3E0FAA3E0F94E
:100A24009000AFE475F001120BCE85F082F58312CD
:100A34000B029000A7F00209779000AFE475F00173
:100A4400120BB8AFF09000A4F0A3EFF00209779076
:100A540000A4E0FEA3E0FF4E60129000AFEEF0A30E
:100A6400EFF0E49000A4F0A3F00209779000B0E066
:100A740004F070069000AFE004F00209779000B033
:100A8400E004F070069000AFE004F00209779000F3
:100A9400ADE0FEA3E0FFC39000B0E09F9000AFE0A4
:100AA4009E50569000AAE0FBA3E0FAA3E0F9900060
:100AB400AFE475F001120BCE85F082F583120B02C0
:100AC4009000A3F09000A8E0FFA3E0FDA3E0FBA347
:100AD400E0FAA3E0F99000AFE475F001120BCE85C3
:100AE400F082F583120B02F5369000A3E0FB121995
:090AF4005080069000A67403F086
:050AFD00055005502228
:0F24210090004374FFF0A37408F0A37400F0223E
:101DF1008B358A3689379000AAE0FBA3E0FAA3E08D
:101E0100F9E5358536838537826B7008E96582701F
:101E110003EA6583600DE49000AFF0A3F0A3F0A3A3
:101E2100F0C20FEF60049000A9F0ED60049000A8EB
:101E3100F0AB35AA36A937AE02AF01EF4E60047F91
:101E41000180027F00E539453860047E0180027E11
:101E510000EE5F60139000AAEBF0A3EAF0A3E9F0B3
:101E6100A3E538F0A3E539F0E53A60049000A7F066
:011E7100224E
:1022C200BF02047E0180027E00BF01047D01800204
:1022D2007D00ED4EFEBF03047D0180027D00ED4EC8
:0822E20060059000A6EFF02258
:062498009000A6E0FF2207
:10132B0055008E00000000000000000000000000CF
:08133B000000010000000000A9
:03004300020D5655
:100D5600C0E0C0F0C083C082C0D075D000C000C063
:100D660001C002C003C004C005C006C007E59A3032
:100D7600E144539AFD900093E0FEA3E0FFC3900088
:100D860092E09F900091E09E501F90008EE0FBA3A2
:100D9600E0FAA3E0F9A3E475F001120BCE85F08228
:100DA600F583120B02F59B800D900095E4F0900000
:100DB6008DE06002C2B7E59A20E003020F16539A4F
:100DC600FE300C0BC20C90009BE4F0A3F0D209900D
:100DD600008DE064026003020E6E900099E0FEA3AF
:100DE600E0FFA3E0FCA3E0FDC39FEC9E50719000E2
:100DF60096E0FBA3E0FAA3E0F98D828C83E59B12D3
:100E06000B2F9000A1E0FEA3E0FFC3ED9FEC9E50E8
:100E160040900099E0FCA3E0FDEF9DEE9C503290DF
:100E2600009EE0FBA3E0FAA3E0F990009BE0FEA39E
:100E3600E0FFF5828E83120B02FD900096E0FBA385
:100E4600E0FAA3E0F98F828E83120B026D6002C274
:100E56000990009CE004F0700690009BE004F0907E
:100E66000029E54FF0020F16900099E0FEA3E0FF7F
:100E7600A3E0FCA3E0FDC39FEC9E5077900096E0B4
:100E8600FBA3E0FAA3E0F98D828C83E59B120B2F7E
:100E96009000A1E0FEA3E0FFC3ED9FEC9E504690BC
:100EA6000099E0FCA3E0FDEF9DEE9C503890009E7B
:100EB600E0FBA3E0FAA3E0F990009BE0FEA3E0FFCD
:100EC600F5828E83120B02FD900096E0FBA3E0FAFA
:100ED600A3E0F98F828E83120B026D600890009B4F
:100EE60074FFF0A3F090009CE004F0700690009B65
:100EF600E004F0900099E0FEA3E0FFC390009CE0C0
:100F06009F90009BE09E400890009D7401F0D20CDB
:100F1600D007D006D005D004D003D002D001D0002F
:0B0F2600D0D0D082D083D0F0D0E032D9
:02243000155045
:0A24320090009DE0A850F6FFE4F0D2
:03243C0005502226
:0124A8002211
:101682008F368E358D348C3390008DE537F07002B5
:10169200800343BA0190008DE0701790005E74FFE2
:1016A200F0A37424F0A374A8F0E4F5DBD290D291F5
:1016B2008023C2B7AB36AA35A934A833E47F407E73
:1016C2009CFDFC120C6F8F4FE54F7003754F01901C
:1016D2000029E54FF0759A10E47B04FAF9F89017A7
:1016E200F6120D28120C6FAB36AA35A934A83312A4
:1016F2000C6FEFF404F5D7E47B04FAF9F89017F6CF
:10170200120D28120C6FAB36AA35A934A833120C6D
:101712006FC3E49FFFE49EFE74019DFDE49CFC7890
:1017220008120D018FD6438E1443AF0190005274FC
:0B173200FFF0A37424F0A37430F02239
:10220D00900096EBF0A3EAF0A3E9F0A3ECF0A3EDB8
:10221D00F09000A1E53BF0A3E53CF090009EE53881
:10222D00F0A3E539F0A3E53AF0D20CE490009DF06F
:01223D00227E
:10223E00900095E0702890008DE06002D2B790007B
:10224E008EEBF0A3EAF0A3E9F0E4A3F0A3F0A3EC85
:10225E00F0A3EDF0A37401F0439A027F02227F03F4
:01226E00224D
:0B245900900095E07002FF227F01223E
:03000000021C538C
:0C1C5300787FE4F6D8FD758150021C9AE1
:100B0200BB010CE58229F582E5833AF583E02250A8
:100B120006E92582F8E622BBFE06E92582F8E222F2
:0D0B2200E58229F582E5833AF583E493220C
:100B2F00F8BB010DE58229F582E5833AF583E8F0FC
:100B3F00225006E92582C8F622BBFE05E92582C8A8
:020B4F00F22290
:100B5100EF8DF0A4A8F0CF8CF0A428CE8DF0A42EB8
:020B6100FE2272
:100B6300BC000BBE0029EF8DF084FFADF022E4CC76
:100B7300F875F008EF2FFFEE33FEEC33FCEE9DEC3F
:100B8300984005FCEE9DFE0FD5F0E9E4CEFD22ED85
:100B9300F8F5F0EE8420D21CFEADF075F008EF2FCF
:100BA300FFED33FD4007985006D5F0F222C398FDC0
:050BB3000FD5F0EA225D
:100BB800C5F0F8A3E028F0C5F0F8E58215827002C8
:060BC8001583E038F02265
:100BCE00A3F8E0C5F025F0F0E582158270021583DA
:060BDE00E0C838F0E82237
:100BE400E88FF0A4CC8BF0A42CFCE98EF0A42CFCB0
:100BF4008AF0EDA42CFCEA8EF0A4CDA8F08BF0A42E
:100C04002DCC3825F0FDE98FF0A42CCD35F0FCEB8C
:100C14008EF0A4FEA9F0EB8FF0A4CFC5F02ECD3951
:0F0C2400FEE43CFCEAA42DCE35F0FDE43CFC22BE
:100C330075F008758200EF2FFFEE33FECD33CDCC78
:100C430033CCC58233C5829BED9AEC99E5829840FB
:100C53000CF582EE9BFEED9AFDEC99FC0FD5F0D6D8
:100C6300E4CEFBE4CDFAE4CCF9A88222B800C1B902
:100C73000059BA002DEC8BF084CFCECDFCE5F0CB40
:100C8300F97818EF2FFFEE33FEED33FDEC33FCEB79
:100C930033FB10D703994004EB99FB0FD8E5E4F934
:100CA300FA227818EF2FFFEE33FEED33FDEC33FC21
:100CB300C933C910D7059BE99A4007EC9BFCE99A15
:100CC300F90FD8E0E4C9FAE4CCFB2275F010EF2F5A
:100CD300FFEE33FEED33FDCC33CCC833C810D7075A
:100CE3009BEC9AE899400AED9BFDEC9AFCE899F895
:0E0CF3000FD5F0DAE4CDFBE4CCFAE4C8F92228
:10205300C2D5E830E70FB2D5E4C39BFBE49AFAE4B8
:1020630099F9E498F8EC30E717B2D5122089120CED
:102073006FE4C39BFBE49AFAE499F9E498F88003CC
:10208300120C6F30D50DE4C39FFFE49EFEE49DFD6B
:04209300E49CFC22AB
:100D0100E8600FECC313FCED13FDEE13FEEF13FFD0
:030D1100D8F122F4
:100D1400E86010ECA2E713FCED13FDEE13FEEF13F5
:040D2400FFD8F022E2
:100D2800E493FC740193FD740293FE740393FF2211
:0C0D3800ECF0A3EDF0A3EEF0A3EFF0222E
:0C0D4400A42582F582E5F03583F58322BA
:060D50008A838982E4732E
:101C5F000218A4E493A3F8E493A34003F68001F2DF
:101C6F0008DFF48029E493A3F85407240CC8C33386
:101C7F00C4540F4420C8834004F456800146F6DF55
:101C8F00E4800B010204081020408090121CE47EB7
:101C9F00019360BCA3FF543F30E509541FFEE4934A
:101CAF00A360010ECF54C025E060A840B8E493A311
:101CBF00FAE493A3F8E493A3C8C582C8CAC583CA3C
:101CCF00F0A3C8C582C8CAC583CADFE9DEE780BEF4
:0113430000A9
:00000001FF
