:1017050000A8C0003F065B4F666D7D077F6F777C45
:10171500395E79713D76061E753815545C736B50CC
:101725006D783E1C2A766E5B5F7C585E7B714080CF
:10173500006300082504270431042704310432041A
:1017450033200008260831083308320831082708F5
:10175500250800082604270431042704310432042F
:10176500332000082608310433083504001000082A
:1017750026083104260431042604310426043104E4
:1017850026042608310831043208271400082604E7
:1017950026043104260431042604310426042604D3
:1017A500260433083308320431082724310426047B
:1017B50031042604310426043104260426083108A0
:1017C50031043208271400082604260431082608A7
:1017D500330832083104260C000826042604310893
:1017E500261836083508330832083108320831081A
:1017F5003208310832083108320831083208310818
:101805003208310832083108320831083208310807
:10181500310800080010330433043308330C331443
:1018250031043104310433043208353833043304C8
:101835003308330C331431043104310433043230AA
:10184500000832082608260826083208280827181E
:02185500001081
:10185700074600121618090425022C00000223006F
:101867000102550000025700010244000101540221
:08187700022E00010252AA55E5
:1029D700AF4F855008855009EF64016003BF0208B7
:1029E7007557007558028013EF7007F55775580132
:1029F7008009BF0306755700755803BF0305E4F543
:032A070023F52490
:012A0A0022A9
:100BAB00854F08855009E5087078E5097002807754
:100BBB00E509B4011575151D7516287517267518D9
:100BCB001D75192A7B287D0D8053E509B402157517
:100BDB00151875162075171C75182875192A7B1B87
:100BEB007D0B8039E509B40318751512751614754C
:100BFB00172475181175192A7B287D117F1C020E7D
:100C0B00F6E50964046003020EF975151B75161DD4
:100C1B0075171175182A75192A7B247D0E7F2A02E8
:100C2B000EF6E508B4011875151D75161275171516
:100C3B0075181E75191C7B1E7D0A7F17020EF6E5B3
:100C4B0008B4031875152A75160D75170A75182330
:100C5B0075190E7B1D7D0E7F10020EF6E5086410D4
:100C6B006003020D22E509B4011875151875160CF1
:100C7B0075171475182A75192A7B157D0C7F2A0296
:100C8B000EF6E509B4021875150A75161675172AAE
:100C9B0075182A75192A7B0C7D2A7F2A020EF6E518
:100CAB0009B4031875150E75161675171975182ACC
:100CBB0075192A7B1D7D2A7F2A020EF6E509B404DD
:100CCB001875150A75161075172A75182A75192AAD
:100CDB007B167D2A7F2A020EF6E509B405187515D9
:100CEB001C75161275170C75182A75192A7B1E7D23
:100CFB00167F2A020EF6E50964066003020EF975EB
:100D0B00151875161675170B75182A75192A7B0B7E
:100D1B007D2A7F2A020EF6E50864116003020DDAC4
:100D2B00122D9C78257C007D007E007F071208D059
:100D3B00E527C4540FF50AE527540FF50B750C2A5C
:100D4B00E526C4540FF50DE526540FF50E750F2A45
:100D5B00E525C4540FF510E525540FF511850A3020
:100D6B00850B31850D32850E33851034F53575368F
:100D7B00AAE52BC4540FF537E52B540FF538E52AAC
:100D8B00C4540FF539E52A540FF53AE529C4540F2D
:100D9B00F53BE529540FF53CE528C4540FF53DE52B
:100DAB0028540FF53E7B007A0079307D0F7C0012C2
:100DBB002A6D850D15850E16850F17851018851153
:0F0DCB0019AB0CAD0BAF0A122B907FFF022DA9B5
:090DDA00E50864136003020EF940
:100DE300122D8EE92406F9E43AFA120A0EF50B8560
:100DF300F00A122D8EE92404F9E43AFA120A0EF5E8
:100E03000D85F00CAE0CFF7C007D641209AC7C00F8
:100E13007D0A1209AC8D30AE0CAF0D7C007D0A1239
:100E230009AC7C007D0A1209AC8D31AE0CAF0D7C90
:100E3300007D0A1209AC8D32AE0AAF0B7C007D64D3
:100E43001209AC7C007D0A1209AC8D33AE0AAF0BDC
:100E53007C007D0A1209AC7C007D0A1209AC8D343A
:100E6300AE0AAF0B7C007D0A1209AC8D357536AA2C
:100E73007B007A0079307D077C00122A6DAE0CAFBF
:100E83000D7C007D641209AC7C007D0A1209ACAABA
:100E930005C002AE0CAF0D7C007D0A1209AC7C00CC
:100EA3007D0A1209ACAA05AE0AAF0B7C007D641261
:100EB30009AC7C007D0A1209ACAB05AE0AAF0B7C12
:100EC300007D0A1209AC7C007D0A1209AC8D188BD7
:100ED30017AE0CAF0D7C007D0A1209ACAB05E4F52F
:100EE30015F516AE0AAF0BFC7D0A1209AC8D19ADD0
:060EF30002D007122B9053
:010EF90022D6
:10277D00E4FF12291ABF011B7F01122B487530AAE5
:10278D007531557532047B007A0079307D037C00FC
:10279D00122A6D7F0112291ABF011B7F02122B48CD
:1027AD007530AA7531557532057B007A0079307D0B
:0727BD00037C00122A6D22CB
:1024DB00122D53EF700EE524452370080556E55673
:1024EB0070020555D3E5569404E5556480948040FD
:1024FB0005E4F555F556E5244523700FE5566401C3
:10250B00455570077D11FC7F0B8028E52445237012
:10251B000FE5566402455570077D11FC7F4B801308
:10252B00E52445237012E55664034555700A7D1169
:10253B00FC7F937E02022660E52445237018E55646
:10254B006404455570107D50FC7F107E031226608D
:07255B007523007524012225
:101F6300E55864014557700CE54564014544700428
:101F73007F55804AE55864014557700EE545B4FF27
:101F830009E544B4FF047FAA8034E5586402455749
:101F93007004AF548028E55864034557700CE54539
:101FA3006401454470047FFF8014E558640345577A
:101FB300700FE545B4FF0AE544B4FF05E4FF122DB5
:101FC300A9AE44AF457CFF7DFF1209458E448F4582
:101FD300E554C39480500FE52F6401452E7007E547
:101FE3005425E0F55422E554D394014011E52FB470
:101FF300FF0CE52EB4FF07E554C313F55422E55453
:1020030064806005E554B4010FAE2EAF2F7CFF7DD5
:09201300FF1209458E2E8F2F22C9
:032DC1000224DB0E
:102BD000122D18BF01167530AA7531557532017B5B
:0C2BE000007A0079307D037C00122A6D21
:012BEC0022C6
:1028D800122DAF8F08E508B4011C7530AA75315563
:1028E8007532027B007A0079307D037C00122A6DF4
:1028F800E4F523F52422E508B402167530AA7531EB
:10290800557532037B007A0079307D037C00122AEA
:012918006D51
:01291900229B
:101DE100E4F50CFF7EC27D01FC121EA8122C4412E8
:101DF1002C0A122C27122D27122B70122BED7D0786
:101E0100E4FF122D7378087C007D007B007A007955
:101E1100467E007F071208D0121BF27F98122A0B10
:101E2100750D00750E00750F527510007511027B4E
:101E3100007A00794D7D057C00122A3C7BFF7A17E0
:101E41007937750D01750E20750FF27DFA7F5A12E3
:101E510025627BFF7A2879D87F051225E37BFF7AFB
:101E61002B79D07F061225E37BFF7A27797D7F04CA
:101E71001225E37BFF7A2979D77F0A1225E37BFFBD
:101E81007A0B79AB7F031225E37BFF7A1F79637F9E
:101E9100021225E37BFF7A2D79C17F011225E3121E
:071EA1002DB512299980FB09
:092D6A008B88898C88898F888987
:10187F0052007C86860086860086860086860086D5
:09188F0086008686004100700904
:03002B00022DA300
:062DA30053BCEFD20F3219
:0213D700151EE1
:1013D900200F03021587C20F90006FE0B409004087
:1013E900030215699013F4F828287302143E0214B5
:1013F9000F02142102145002140F0214210214675F
:1014090002140F021421AFBDEFFEADBE7C00E42D26
:10141900FFEC3E900072803FAFBDEFFEADBE7C0099
:10142900E42DFFEC3E900074F0A3EFF0900071748E
:1014390001F002156FAFBDEFFEADBE7C00E42DFFDC
:10144900EC3E9000768010AFBDEFFEADBE7C00E4AF
:101459002DFFEC3E900078F0A3EFF002156FAFBDC1
:10146900EFFEADBE7C00E42DFFEC3E90007AF0A3C8
:10147900EFF090007AE0FEA3E07807CEC313CE1315
:10148900D8F9A81EF6C394065013A81EE675F003F2
:10149900A4247CF582E43400F583E014F090007014
:1014A900E014F0600302156F7409F0A81EE4F6A8B1
:1014B9001EE6FFC39406400302156FEF75F003A4FF
:1014C900247CF582E43400F583E0C39480502CE653
:1014D900FF75F003A4247DF582E43400F583E0D39D
:1014E90094804044EF75F003A4247EF582E434002F
:1014F900F5837401F090008EF0802DA81EE6FF752B
:10150900F003A4247DF582E43400F583E0C39480DC
:101519005016EF75F003A4247EF582E43400F583B8
:101529007402F090008E14F0A81EE6FF75F003A473
:10153900247CF582E43400F583E0FEEF75F003A422
:10154900247DF582E43400F583EEF0E675F003A41A
:10155900247CF582E43400F5837486F0060214B81D
:1015690090006F74FFF090006FE0D394074003740C
:0E157900FFF090006FE004F0902D6A93F5BC37
:03158700051E221C
:022CCD00151ED2
:0A2CCF0090008EE0A81EF6FFE4F06E
:032CD900051E22B3
:022CDC00151EC3
:0A2CDE00900071E0A81EF6FFE4F07C
:032CE800051E22A4
:102A0B008F9D75BC88439720D2AD90004674FFF024
:102A1B00A37413F0A374D7F0A374FFF0A3742CF07A
:102A2B00A374CDF0A374FFF0A3742CF0A374DCF0AB
:012A3B002278
:072D8E007B017A007972223B
:10280B00C3EF64809480403BD3EF64809485503356
:10281B00EFFD3395E0FC90007E75F003ED120B9904
:10282B00EC75F003A42583F583E0FE90007E75F034
:10283B0003ED120B99EC75F003A42583F583E4F0FB
:05284B00AF06227F032F
:012850002265
:042B2000151E151E4B
:102B2400122D7CA81EA60608A607A81EE6FE08E627
:0F2B3400FF4E600BEF24FFFFEE34FFFE122D85E6
:052B4300051E051E2225
:102B700053B1EF43B210122DC7E4F5D975DA49D23B
:102B8000DE90004074FFF0A3742BF0A37420F022B9
:082660008E0E8F0F8C108D11FE
:10266800122D7CEF4E7066AF11AE10122D85C3E5AA
:102678000F940AE50E9400404BE47B18FAF9F890A1
:102688001705120B7D120AC4C006C007AE0EAF0FA5
:10269800AB07AA06E4F9F8D007D006120AC4AB07BC
:1026A800AA06AFF9EFFEADE97C00E42DFFEC3ECFC2
:1026B8002BCF3AAD07FCAF03AE02122CBCD2D843E5
:0F26C800DA018006122DC753DAFE7F02227F034C
:0126D70022E0
:0C2D5300122D7CEF4E7002FF227F012247
:101898005C0091000700000000000000000000004C
:1018A80000000000000000000000000000000041EF
:0718B800008F644100900A5B
:04158A00151E151EF7
:10158E0090008FE014F0D36480948050107464F057
:10159E00A3E014F0648094805003740AF0E4F580A4
:1015AE009000ACE0FFB40800505F9015BFF82828FB
:1015BE00730215D70215DD0215E30215E90215EFC8
:1015CE000215F902160302160DC2A3C2A28016C29C
:1015DE00A3C2A2801AC2A3C2A2801EC2A3C2A280AC
:1015EE0022C2A3D2A2C2A1C2A08020C2A3D2A2C2F2
:1015FE00A1D2A08016C2A3D2A2D2A1C2A0800CC238
:10160E00A3D2A2D2A1D2A08002D2A3C3EF648094AF
:10161E008850479000ACE0FF3395E0FE749C2FF5A8
:10162E008274003EF583E0FD900090E0FCD3ED6403
:10163E0080F8EC648098402074932FF58274003EFD
:10164E00F583E0FF3395E0FE74092FF58274173EA3
:10165E00F583E493F580806E80699000ACE0FF64C2
:10166E00087060EF3395E0FE74932FF58274003EA0
:10167E00F583E0A81EF6A81E08E4F6A81E08E6FFED
:10168E00C39408503774A42FF582E43400F583E038
:10169E00FF900090E0FED3EF6480F8EE64809850E7
:1016AE0015A81E08E6FF7401A807088002C333D8E8
:1016BE00FCF4A81E56F6A81E080680BFA81EE6F566
:1016CE00808003E4F580900092E0FF9000ACE0048F
:1016DE00FEF0D3EF6480F8EE6480984015E0D3649A
:1016EE0080948850057408F08008900091E0900076
:0216FE00ACF04E
:05170000051E051E227C
:102C4400E4F5937594FF5395F043960F90002B741D
:0B2C5400FFF0A37415F0A3748AF022B7
:092D7300900091EFF0A3EDF022B5
:102B9000900093EFF0A3EDF0A3EBF0A3E515F0A305
:102BA000E516F0A3E517F0A3E518F0A3E519F02268
:062DA90090009BEFF022F8
:1022A600EFF5823395E0F583E582F445836005908A
:1022B600009CEFF0EDFF3395E0FEEFF44E600590E5
:1022C600009DEDF0EBFF3395E0FEEFF44E600590D8
:1022D600009EEBF0AF6DEF3395E0FEEFF44E600637
:1022E60090009FE56DF0AF6EEF3395E0FEEFF44E94
:1022F60060069000A0E56EF0AF6FEF3395E0FEEF5D
:10230600F44E60069000A1E56FF0AF70EF3395E0F4
:10231600FEEFF44E60069000A2E570F0AF71EF3369
:0F23260095E0FEEFF44E60069000A3E571F02203
:10233500EFF5823395E0F583E582F44583600590FA
:1023450000ABEFF0EDFF3395E0FEEFF44E60059046
:1023550000AAEDF0EBFF3395E0FEEFF44E6005903B
:1023650000A9EBF0AF75EF3395E0FEEFF44E600694
:102375009000A8E575F0AF76EF3395E0FEEFF44EEB
:1023850060069000A7E576F0AF77EF3395E0FEEFB6
:10239500F44E60069000A6E577F0AF78EF3395E050
:1023A500FEEFF44E60069000A5E578F0AF79EF33C7
:0F23B50095E0FEEFF44E60069000A4E579F0226B
:1018BF004100EA00011C004100E7054100E88341B7
:0318CF0000E983AA
:102895002092069000E8E014F09000E7E014F07054
:1028A500317405F0A3E0FFC39480500BA3E094803E
:1028B5004015751C01800C9000E9E0C39480500719
:1028C500751C02A37401F09000E9EFF09000E87424
:0228D50083F08E
:0128D70022DE
:022CEB00151EB4
:0A2CED009000EAE0A81EF6FFE4F0F4
:032CF700051E2295
:102BED0090003774FFF0A3742CF0A374EBF09000F9
:0D2BFD003474FFF0A37428F0A37495F02247
:052DAF00AF1CE4F51C5F
:012DB40022FC
:1018D2004100D4004900D59494009494009494005B
:0418E2004100D31ED0
:0219A500151E0D
:1019A70020B2069000D5E014F020B3069000D8E0EE
:1019B70014F02097069000DBE014F09000D3E014B9
:1019C700F06003021AC9741EF0A81EE4F6A81EE60A
:1019D700FFC3648094834003021AC9EF3395E0FE86
:1019E7009000D575F003EF120B99EE75F003A4255F
:1019F70083F583E0C39480503B9000D675F003EFE6
:101A0700120B99EE75F003A42583F583E0D3948038
:101A1700405EE6FF3395E0FE9000D775F003EF12C6
:101A27000B99EE75F003A42583F5837401F09000FC
:101A3700D4F0803CA81EE6FF3395E0FE9000D675F3
:101A4700F003EF120B99EE75F003A42583F583E0FD
:101A5700C39480501B9000D775F003EF120B99EEDB
:101A670075F003A42583F5837402F09000D414F075
:101A7700A81EE6FFFD3395E0FC9000D575F003ED59
:101A8700120B99EC75F003A42583F583E0FE900013
:101A9700D675F003ED120B99EC75F003A42583F5C9
:101AA70083EEF0EF3395E0FE9000D575F003EF126B
:101AB7000B99EE75F003A42583F5837494F0060261
:021AC70019D430
:031AC900051E22D5
:022CFA00151EA5
:0A2CFC009000D4E0A81EF6FFE4F0FB
:032D0600051E2285
:102C0A0090003174FFF0A3742CF0A374FAF09000D2
:0D2C1A002E74FFF0A37419F0A374A5F0222E
:10291A00EF600764016003BF0233EFFD3395E0FC0B
:10292A009000D775F003ED120B99EC75F003A4250E
:10293A0083F583E0FE9000D775F003ED120B99EC56
:0F294A0075F003A42583F583E4F0AF06227F0325
:01295900225B
:1018E6004100000A41002A0A41006E0A045F000016
:1018F60000000164004600680000FFFF8FFFC10D75
:10190600C105C108C101C10E60240005FF2DCAFF33
:101916002DCAFF2DCAFF2DCAFF2DCAFF2DCAFF2DC6
:10192600CAFF2DCAFF2DCAFF2DCAFF2DCAFF2DCA19
:101936006036002BFF2DCAFF2DCAFF2DC4FF2DCA0E
:10194600FF2DC4FF2DCAFF2DC4FF2DCAFF2DCAFFD0
:101956002DCAFF2DC4FF2DC4FF2DC4FF2DC4FF2D9E
:0A196600CAFF2DCAFF2DCAFF2DCACB
:012DCA0022E6
:032DC4007F00226B
:1027C400438E805389F07BE07A2879017800901752
:1027D40005120B7D122851EFF404F58A7BE07A2868
:1027E40079017800901705120B7D122851C3E49FDC
:1027F400FFE49EFE74019DFDE49CFC7808120B69C5
:072804008F8CD28CD2A922B7
:03000B0002272B9E
:04272B00C0E0C0D07A
:10272F00D5590A75594C300D020564D20DA20372AA
:10273F00045036155BE55B7030855D5BD207300A60
:10274F0017E55E6007155E438F01801D538FFEC234
:10275F00B5D56615C20A8011055CE55CD3940640B9
:09276F0008C203E5636002D20612
:05277800D0D0D0E032DA
:1026D800300E47C20E901705120B7D7810120B6949
:1026E8008E1A8F1B900003E0FEA3E0FFE4FCFD7B45
:1026F80019FAF9F8120A39C006C007AE1AAF1BABAF
:1027080007AA06E4F9F8D007D00612285178031270
:102718000B69900066EEF0A3EFF0900066E0FEA370
:02272800E0FFD0
:01272A00228C
:092D7C00900068E0FEA3E0FF22D4
:092D8500900068EEF0A3EFF022CB
:102CBC0090006CEEF0A3EFF090006AECF0A3EDF056
:012CCC0022E5
:032DC700C2B42271
:03003B000220C6DA
:1020C600C0E0C083C082C0D075D000C004C005C0C7
:0320D60006C0073A
:1020D90030DF04C2DF807D30DA04C2DA807630D99D
:1020E9003DC2D9AFFBEFFEADEB7C00E42DFFEC3E2A
:1020F90020000E900001F0A3EFF075DB11D20080F3
:1021090053FE900001E0FCA3E0FDC3EF9DFFEE9CB0
:10211900A3F0A3EFF075DB00C200D20E803630D8F1
:1021290033C2D8900068E07002A3E06022B2B49094
:10213900006AE0FEA3E0F5EAEEF5FAA3E0FEA3E00B
:10214900FF90006BE02FF090006AE03EF08005C23E
:04215900B453DAFEA3
:10215D00D007D006D005D004D0D0D082D083D0E027
:01216D00323F
:062DB5001227C4D2AF2278
:102450003004047F0180027F00200A047E01800294
:102460007E00EE5F6074E565C3955A5068300236B1
:10247000755E01E565131313541FAB67AA68A9695C
:10248000F5827583001208F6FFE565540704FEEF38
:10249000A806088002C333D8FC30D70575660380D0
:1024A0002F756601802AAB67AA68A96975F002E5F5
:1024B00065A4F58285F0831208F6F55EE56575F092
:1024C00002A429F9EA35F0FA9000011208F6F5663F
:0A24D0000565D20A22C204438F10F2
:0124DA0022DF
:101CF000900000E014F0701F740AF0D20590002AE2
:101D0000E014F07012740AF0D20890006EE014F043
:101D10007005740AF0D20190002BA3E0FAA3E0F959
:101D2000120BA590002EA3E0FAA3E0F9120BA590E8
:101D3000003AA3E0FAA3E0F9120BA5900046A3E055
:101D4000FAA3E0F9120BA5900055A3E0FAA3E0F97D
:101D5000120BA590005EA3E0FAA3E0F9120BA59088
:101D6000004CA3E0FAA3E0F9120BA5EF600C900081
:101D70001DA3E0FAA3E0F9120BA590004FA3E0FA2F
:101D8000A3E0F9120BA5EF600E900020A3E0FAA3E8
:101D9000E0F9120BA5D20B900029E0D39400401873
:101DA000E014F0703030090C900023A3E0FAA3E0B7
:101DB000F9120BA5D20C801D900052A3E0FAA3E00B
:101DC000F9120BA5EF600E900023A3E0FAA3E0F94F
:101DD000120BA5D20C900005A3E0FAA3E0F9020BC8
:011DE000A55D
:10221300900040A3E0FAA3E0F9120BA5900043A3BA
:10222300E0FAA3E0F9120BA5900034A3E0FAA3E0CF
:10223300F9120BA5900008A3E0FAA3E0F9120BA58D
:10224300900031A3E0FAA3E0F9120BA5EF600C9024
:102253000011A3E0FAA3E0F9120BA5900037A3E065
:10226300FAA3E0F9120BA5EF600C900017A3E0FAB4
:10227300A3E0F9120BA5900049A3E0FAA3E0F91239
:102283000BA5EF600C90001AA3E0FAA3E0F9120B80
:10229300A530060EC206900026A3E0FAA3E0F912C9
:0322A3000BA52266
:10295A0090000BA3E0FAA3E0F9120BA590003DA3A7
:10296A00E0FAA3E0F9120BA5EF600C900014A3E0C3
:10297A00FAA3E0F9120BA5900058A3E0FAA3E0F934
:0F298A00120BA590005BA3E0FAA3E0F9020BA5E6
:102ACC00AF62AE61AD60AC5F900061120B8D900097
:102ADC0065E564F0E4F562F561F560F55FF5649029
:0B2AEC00000EA3E0FAA3E0F9020BA526
:10299900300705C207122450300D05C20D121CF074
:1029A900300505C205122213300805C20812295A3A
:1029B900300105C201122ACCE5622401F562E43531
:0E29C90061F561E43560F560E4355FF55F228D
:1025E3008B088A09890AEFB40C0050709025F6F81D
:1025F30028287302261A02261F02262402262902ED
:10260300262E02263302263802263D0226420226C1
:102613004702264C02265190000580359000088021
:102623003090000B802B90000E80269000118021AB
:10263300900017801C900014801790001A8012904D
:10264300001D800D900020800890002380039000DF
:0D26530026E508F0A3E509F0A3E50AF02252
:072D95007B017A0079612245
:081970004100EC004100EB0016
:0E2D450020A40A9000EC7401F09000EBF02244
:022D0900151E95
:0A2D0B009000ECE0A81EF6FFE4F0D3
:032D1500051E2276
:102C270090003D74FFF0A3742DF0A37409F0900099
:0D2C37003A74FFF0A3742DF0A37445F02251
:022D1800151E86
:0A2D1A009000EBE0A81EF6FFE4F0C5
:032D2400051E2267
:101ACC0000C400DC00F701060126014A01720188FE
:101ADC0001B801EE020B024B029302E403100370F7
:101AEC0003DC04160497052605C800DC00F7011575
:101AFC000126014A0172019F01B801EE022A024B34
:101B0C00029302E4033F037003DC0455049705269B
:101B1C0005C8067D00F701150137014A0172019FC6
:101B2C0001D201EE022A026E029302E4033F03A4E7
:101B3C0003DC045504DD057505C8067D074901065F
:101B4C000126014A015D018801B801EE020B024B2E
:101B5C00029302BA0310037003DC041604970526E3
:101B6C000575062006E007B80126014A01720188B6
:101B7C0001B801EE022A024B029302E40310037037
:101B8C0003DC04550497052605C8062006E007B8B3
:101B9C0008AA014A0172019F01B801EE022A026EE5
:101BAC00029302E4033F037003DC045504DD0526B5
:101BBC0005C8067D06E007B808AA09B9015D0188C9
:101BCC0001B801D2020B024B029302BA031003704C
:101BDC0003A40416049705260575062006E007499C
:061BEC00082D092D0A4D31
:101978004D00C60300000000000000000000000049
:06201C008F088D098B0AFC
:10202200122D53EF60037F0122E50AD3940040068C
:10203200E50A94114028E50AD394174006E50A946C
:1020420021401BE50AD394274006E50A9431400E4D
:10205200E50AD394375007E508C394F950037F0388
:1020620022E50A603DC4540F75F007A4FDACF0E50B
:102072000875F015A42DFFE5F03CFEE50A54077C37
:10208200002FFFEC3EFEEF25E0FFEE33FE74E22F61
:10209200F58274F13EF583E493F50C740193F50D2A
:1020A2008005E4F50CF50DAF0B7E007C017D771207
:1020B2000945AD091C120957AD07AC06AF0DAE0CB0
:0320C20012266083
:0120C50022F8
:040EFA00151E151E8E
:100EFE00122D53EF70047F0180027F009000C6E038
:100F0E00FEB402047D0180027D00ED5F60030211DC
:100F1E00F7EEB40316E49000C4F0A3F09000CFF007
:100F2E00A3F0A3F0A3F0C2100211F79000C7E0FFE8
:100F3E00B4F3047E0180027E00EFB4F1047F0180E1
:100F4E00027F00EF4E603E9000C9E0FE75F06484B3
:100F5E00FFEE75F00A8475F00A84ADF0E075F00AC4
:100F6E0084ABF075150A9000C8E02407F5169000C2
:100F7E00C3E0FEC4540F240AF51775180AEE540781
:100F8E00F519122B909000C7E0FFB4F3047E018098
:100F9E00027E00EFB4F2047F0180027F00EF4E70FC
:100FAE00030210509000C9E0FD7C007E177F701286
:100FBE000957A81EA607E6F975F002A4FFC3900014
:100FCE00D2E09F9000D1E095F05070E0FEA3E0FFDC
:100FDE007C007D0B120945E9FBFD120957A81E087E
:100FEE00A6079000D1E475F0011209F8FED3E5F0E2
:100FFE009BEE94004018A81E08E624F9FFE47EF04C
:10100E00A807088005CEC313CE13D8F9801FA81EDB
:10101E0008E6FF740F7E00A807088005C333CE33A1
:10102E00CED8F97804CEA2E713CE13D8F8A81E08AE
:10103E00F6A81E08E6FF122DA98007E49000D1F055
:10104E00A3F09000CDE0FEA3E0FFC39000D0E09FA0
:10105E009000CFE09E40030211F1122D53EF60037A
:10106E000211F79000CAE0FBA3E0FAA3E0F99000AA
:10107E00CFE0FEA3E0F5828E831208F6FFD39437FD
:10108E00500302118CEF241024FC5079604524FE8D
:10109E00700302113714700302114D240260030213
:1010AE00117B9000CAE0FBA3E0FAA3E0F99000CF19
:1010BE00E475F0011209E285F082F5831208F690CC
:1010CE0000C8F09000D0E004F070989000CFE004DB
:1010DE00F080909000CAE0FBA3E0FAA3E0F9900044
:1010EE00CFE475F0011209E285F082F5831208F65D
:1010FE009000C9F09000D0E004F0706E9000CFE048
:10110E0004F00210719000CAE0FBA3E0FAA3E0F92C
:10111E009000CFE475F0011209F885F082F5831284
:10112E0008F69000C7F00210719000CFE475F00140
:10113E001209E2AFF09000C4F0A3EFF0021071902C
:10114E0000C4E0FEA3E0FF4E60129000CFEEF0A3CD
:10115E00EFF0E49000C4F0A3F00210719000D0E024
:10116E0004F070069000CFE004F00210719000D0F1
:10117E00E004F070069000CFE004F00210719000D1
:10118E00CDE0FEA3E0FFC39000D0E09F9000CFE043
:10119E009E50569000CAE0FBA3E0FAA3E0F990003F
:1011AE00CFE475F0011209F885F082F5831208F686
:1011BE009000C3F09000C8E0FFA3E0FDA3E0FBA306
:1011CE00E0FAA3E0F99000CFE475F0011209F8857A
:1011DE00F082F5831208F6F50B9000C3E0FB1220A7
:0911EE001C80069000C67403F099
:0511F700051E051E228B
:0F2D270090004374FFF0A3740EF0A374FAF0222F
:102562008B0A8A0B890C9000CAE0FBA3E0FAA3E075
:10257200F9E50A850B83850C826B7008E965827028
:1025820003EA6583600DE49000CFF0A3F0A3F0A30B
:10259200F0C210EF60049000C9F0ED60049000C832
:1025A200F0AB0AAA0BA90CAE02AF01EF4E60047F9A
:1025B2000180027F00E50E450D60047E0180027EEF
:1025C20000EE5F60139000CAEBF0A3EAF0A3E9F01B
:1025D200A3E50DF0A3E50EF0E50F60049000C7F04F
:0125E20022D6
:102B4800BF02047E0180027E00BF01047D01800275
:102B58007D00ED4EFEBF03047D0180027D00ED4E39
:082B680060059000C6EFF022A9
:062DBB009000C6E0FF22BB
:041988004100E60133
:102C5F00C295E4FEEF1392CC000000D29500EFC3B3
:082C6F0013FFC2950EBE08EC34
:012C7700223A
:102C7800E4FFFEEFC313FF30CC03430780D2950077
:082C88000000C2950EBE08EB2E
:012C90002221
:102A9E00F07F85122AB1A3EFF07F87122AB1A3EF40
:032AAE00F07F892D
:102AB100C296000000C295000000D29600122C5F61
:0A2AC100122C78D295000000C29696
:012ACB0022E8
:032BB000A3E0FDA2
:102BB300C296000000C295000000D29600122C5F5E
:0D2BC300AF05122C5FD295000000C29622D3
:072D9C007B017A0079DF22C0
:102C910078DF7C007D017B007A00790F7E007F0761
:092CA1001208D0E49000E6F022D4
:102CAA00EFD3941F5009EF25E044C1FF022AB17FF8
:022CBA000122F5
:102AF700AC07AB05ECD3941F501CE4FD7F8E122B63
:102B0700B3EC25E044C0FFAD03122BB37D807F8E6D
:092B1700122BB37F00227F012282
:02216E00151E3C
:102170009000E6E060447F81122AB1A81EEFF6903D
:1021800000DFE06F7003022210A81EE6F07F8312CA
:102190002AB1A81EEFF6A3E06F6075A81EE6122A0A
:1021A0009EA3EFF07F8D122AB19000E5EFF07F8BB8
:1021B000122AB19000E4EFF080569000DEE0FF04B8
:1021C000F0EFC3940A4049E4F09000E604F0E4FD27
:1021D0007F8E122BB39000DFE0FD7F80122BB37F48
:1021E00082122BB07F84122BB0A3E0FD7F86122BCE
:1021F000B3A3E0FD7F88122BB3A3E0FD7F8A122BEF
:10220000B3A3E0FD7F8C122BB37D807F8E122BB3A6
:03221000051E2286
:101BF2007F81122AB19000DFEFF07F83122AB1A316
:101C0200EF122A9EA3EFF07F8B122AB1A3EFF07F8F
:101C12008D122AB1A3EFF0E4FD7F8E122BB37F1E4B
:101C2200122CAAEF64A560047F0180027F0090005D
:101C3200DFE05480FEA3E0D3945940047D0180028A
:101C42007D00ED4EFE9000E1E0D394A440047D01BE
:101C520080027D00ED4EFE9000E2E0D3943140041C
:101C62007D0180027D00ED4EFE9000E3E0D39412F0
:101C720040047D0180027D00ED4EFE9000E4E0D341
:101C8200940740047D0180027D00ED4EFE9000E548
:101C9200E0D3949940047D0180027D00ED4E4F60B7
:101CA20030780F7C007D007B007A0079087E007F0F
:101CB200071208D0122C917DA57F1E122AF778DF19
:101CC2007C007D017B007A0079087E007F07120884
:101CD200D07DA97F90122BB37D807F8E122BB39083
:0E1CE200005B74FFF0A37421F0A3746EF02277
:10198C005500AE0000000000000000000000000048
:08199C00000001000000000042
:030043000211FCAB
:1011FC00C0E0C0F0C083C082C0D075D000C000C0B9
:10120C0001C002C003C004C005C006C007E59A3087
:10121C00E144539AFD9000B3E0FEA3E0FFC39000BD
:10122C00B2E09F9000B1E09E501F9000AEE0FBA397
:10123C00E0FAA3E0F9A3E475F0011209F885F08255
:10124C00F5831208F6F59B800D9000B5E4F0900044
:10125C00ADE06002C2B7E59A20E0030213BC539ADA
:10126C00FE300C0BC20C9000BBE4F0A3F0D2099042
:10127C0000ADE0640260030213149000B9E0FEA319
:10128C00E0FFA3E0FCA3E0FDC39FEC9E5071900037
:10129C00B6E0FBA3E0FAA3E0F98D828C83E59B1208
:1012AC0009239000C1E0FEA3E0FFC3ED9FEC9E502C
:1012BC00409000B9E0FCA3E0FDEF9DEE9C50329015
:1012CC0000BEE0FBA3E0FAA3E0F99000BBE0FEA3B4
:1012DC00E0FFF5828E831208F6FD9000B6E0FBA3CA
:1012EC00E0FAA3E0F98F828E831208F66D6002C2D9
:1012FC00099000BCE004F070069000BBE004F09094
:10130C000029E51DF00213BC9000B9E0FEA3E0FF3C
:10131C00A3E0FCA3E0FDC39FEC9E50779000B6E0E9
:10132C00FBA3E0FAA3E0F98D828C83E59B120923E1
:10133C009000C1E0FEA3E0FFC3ED9FEC9E504690F1
:10134C0000B9E0FCA3E0FDEF9DEE9C50389000BE90
:10135C00E0FBA3E0FAA3E0F99000BBE0FEA3E0FF02
:10136C00F5828E831208F6FD9000B6E0FBA3E0FA3E
:10137C00A3E0F98F828E831208F66D60089000BB93
:10138C0074FFF0A3F09000BCE004F070069000BB7A
:10139C00E004F09000B9E0FEA3E0FFC39000BCE0D5
:1013AC009F9000BBE09E40089000BD7401F0D20CF1
:1013BC00D007D006D005D004D003D002D001D00085
:0B13CC00D0D0D082D083D0F0D0E0322F
:022D3600151E68
:0A2D38009000BDE0A81EF6FFE4F0D5
:032D4200051E2249
:012DCB0022E5
:101EA8008F0B8E0A8D098C089000ADE50CF070023E
:101EB800800343BA019000ADE0701790005E74FF94
:101EC800F0A3742DF0A374CBF0E4F5DBD290D2919B
:101ED8008023C2B7AB0BAA0AA909A808E47F407EF1
:101EE8009CFDFC120AC48F1DE51D7003751D019031
:101EF8000029E51DF0759A10E47B04FAF9F89017AB
:101F080005120B7D120AC4AB0BAA0AA909A808126C
:101F18000AC4EFF404F5D7E47B04FAF9F89017053E
:101F2800120B7D120AC4AB0BAA0AA909A808120A47
:101F3800C4C3E49FFFE49EFE74019DFDE49CFC780D
:101F480008120B568FD6438E1443AF01900052747B
:0B1F5800FFF0A3742DF0A37436F022FC
:102A3C009000B6EBF0A3EAF0A3E9F0A3ECF0A3ED61
:102A4C00F09000C1E510F0A3E511F09000BEE50D8B
:102A5C00F0A3E50EF0A3E50FF0D20CE49000BDF06E
:012A6C002247
:102A6D009000B5E070289000ADE06002D2B7900004
:102A7D00AEEBF0A3EAF0A3E9F0E4A3F0A3F0A3EC2E
:102A8D00F0A3EDF0A37401F0439A027F02227F03BD
:012A9D002216
:0B2D5F009000B5E07002FF227F01220F
:030000000223C414
:0C23C400787FE4F6D8FD75817902240BC7
:10080000E709F608DFFA8046E709F208DFFA803EDA
:1008100088828C83E709F0A3DFFA8032E309F608C7
:10082000DFFA8078E309F208DFFA807088828C832F
:10083000E309F0A3DFFA806489828A83E0A3F608E3
:10084000DFFA805889828A83E0A3F208DFFA804CBD
:1008500080D280FA80C680D4806980F28033801094
:1008600080A680EA809A80A880DA80E280CA8033FD
:1008700089828A83ECFAE493A3C8C582C8CCC58375
:10088000CCF0A3C8C582C8CCC583CCDFE9DEE78045
:100890000D89828A83E493A3F608DFF9ECFAA9F0C4
:1008A000EDFB2289828A83ECFAE0A3C8C582C8CC1A
:1008B000C583CCF0A3C8C582C8CCC583CCDFEADE33
:1008C000E880DB89828A83E493A3F208DFF980CC95
:1008D00088F0EF60010E4E60C388F0ED2402B4048E
:1008E0000050B9F582EB2402B4040050AF23234535
:0608F00082239008507302
:1008F600BB010CE58229F582E5833AF583E02250B7
:1009060006E92582F8E622BBFE06E92582F8E22200
:0D091600E58229F582E5833AF583E493221A
:10092300F8BB010DE58229F582E5833AF583E8F00A
:10093300225006E92582C8F622BBFE05E92582C8B6
:02094300F2229E
:10094500EF8DF0A4A8F0CF8CF0A428CE8DF0A42EC6
:02095500FE2280
:10095700BC000BBE0029EF8DF084FFADF022E4CC84
:10096700F875F008EF2FFFEE33FEEC33FCEE9DEC4D
:10097700984005FCEE9DFE0FD5F0E9E4CEFD22ED93
:10098700F8F5F0EE8420D21CFEADF075F008EF2FDD
:10099700FFED33FD4007985006D5F0F222C398FDCE
:0509A7000FD5F0EA226B
:1009AC00C2D5EC30E709B2D5E4C39DFDE49CFCEE66
:1009BC0030E715B2D5E4C39FFFE49EFE120957C37E
:1009CC00E49DFDE49CFC800312095730D507C3E479
:0609DC009FFFE49EFE22D5
:1009E200C5F0F8A3E028F0C5F0F8E58215827002A0
:0609F2001583E038F0223D
:1009F800A3F8E0C5F025F0F0E582158270021583B2
:060A0800E0C838F0E8220E
:100A0E00BB010A89828A83E0F5F0A3E022500687B3
:100A1E00F009E71922BBFE07E3F5F009E319228975
:0B0A2E00828A83E493F5F074019322A8
:100A3900E88FF0A4CC8BF0A42CFCE98EF0A42CFC5C
:100A49008AF0EDA42CFCEA8EF0A4CDA8F08BF0A4DA
:100A59002DCC3825F0FDE98FF0A42CCD35F0FCEB39
:100A69008EF0A4FEA9F0EB8FF0A4CFC5F02ECD39FE
:0F0A7900FEE43CFCEAA42DCE35F0FDE43CFC226B
:100A880075F008758200EF2FFFEE33FECD33CDCC25
:100A980033CCC58233C5829BED9AEC99E5829840A8
:100AA8000CF582EE9BFEED9AFDEC99FC0FD5F0D685
:100AB800E4CEFBE4CDFAE4CCF9A88222B800C1B9AF
:100AC8000059BA002DEC8BF084CFCECDFCE5F0CBED
:100AD800F97818EF2FFFEE33FEED33FDEC33FCEB26
:100AE80033FB10D703994004EB99FB0FD8E5E4F9E1
:100AF800FA227818EF2FFFEE33FEED33FDEC33FCCE
:100B0800C933C910D7059BE99A4007EC9BFCE99AC1
:100B1800F90FD8E0E4C9FAE4CCFB2275F010EF2F06
:100B2800FFEE33FEED33FDCC33CCC833C810D70706
:100B38009BEC9AE899400AED9BFDEC9AFCE899F841
:0E0B48000FD5F0DAE4CDFBE4CCFAE4C8F922D4
:10285100C2D5E830E70FB2D5E4C39BFBE49AFAE4B2
:1028610099F9E498F8EC30E717B2D5122887120AE3
:10287100C4E4C39BFBE49AFAE499F9E498F8800371
:10288100120AC430D50DE4C39FFFE49EFEE49DFD12
:04289100E49CFC22A5
:100B5600E8600FECC313FCED13FDEE13FEEF13FF7D
:030B6600D8F122A1
:100B6900E86010ECA2E713FCED13FDEE13FEEF13A2
:040B7900FFD8F0228F
:100B7D00E493FC740193FD740293FE740393FF22BE
:0C0B8D00ECF0A3EDF0A3EEF0A3EFF022DB
:0C0B9900A42582F582E5F03583F5832267
:060BA5008A838982E473DB
:1023D000021DE1E493A3F8E493A34003F68001F225
:1023E00008DFF48029E493A3F85407240CC8C3330E
:1023F000C4540F4420C8834004F456800146F6DFDD
:10240000E4800B0102040810204080901857E47EFD
:10241000019360BCA3FF543F30E509541FFEE493D1
:10242000A360010ECF54C025E060A840B8E493A398
:10243000FAE493A3F8E493A3C8C582C8CAC583CAC3
:10244000F0A3C8C582C8CAC583CADFE9DEE780BE7B
:0119A4000042
:00000001FF
