:1013970000A8C0003F065B4F666D7D077F6F777CB7
:1013A700395E79713D76061E753815545C736B503E
:1013B7006D783E1C2A766E5B5F7C585E7B71408041
:1013C700006300082504270431042704310432048C
:1013D7003320000826083108330832083108270867
:1013E70025080008260427043104270431043204A1
:1013F700332000082608310433083504001000089C
:101407002608310426043104260431042604310455
:101417002604260831083104320827140008260458
:101427002604310426043104260431042604260444
:1014370026043308330832043108272431042604EC
:101447003104260431042604310426042608310811
:101457003104320827140008260426043108260818
:10146700330832083104260C000826042604310804
:10147700261836083508330832083108320831088B
:101487003208310832083108320831083208310889
:101497003208310832083108320831083208310879
:1014A700310800080010330433043308330C3314B5
:1014B700310431043104330432083538330433043A
:1014C7003308330C3314310431043104330432301C
:1014D7000008320826082608260832082808271890
:0214E7000010F3
:1014E900073B00521711090425022B0000022200B4
:1014F90001024A0000024C000102390001014902BF
:08150900022D00010247AA5562
:1025D400AF44854508854509EF64016003BF0208DF
:1025E400754C00754D028013EF7007F54C754D0165
:1025F4008009BF0306754C00754D03BF0305E4F560
:0326040022F52399
:0126070022B0
:100E4C00854408854509E5087078E50970028077C6
:100E5C00E509B4011575151D751628751726751835
:100E6C001D75192A7B287D0D8053E509B402157573
:100E7C00151875162075171C75182875192A7B1BE3
:100E8C007D0B8039E509B4031875151275161475A8
:100E9C00172475181175192A7B287D117F1C020FD8
:100EAC00BCE5096404600302104075151B75161D22
:100EBC0075171175182A75192A7B247D0E7F2A0245
:100ECC000FBCE508B4011875151D751612751715AC
:100EDC0075181E75191C7B1E7D0A7F17020FBCE549
:100EEC0008B4031875152A75160D75170A7518238D
:100EFC0075190E7B1D7D0E7F10020FBCE50864106A
:100F0C006003020FBFE509B4011875151875160CAE
:100F1C0075171475182A75192A7B157D0C7F2A02F2
:100F2C000FBCE509B4021775150A75161675172A44
:100F3C0075182A75192A7B0C7D2A7F2A8072E5097F
:100F4C00B4031775150E75161675171975182A75BD
:100F5C00192A7B1D7D2A7F2A8056E509B404177552
:100F6C00150A75161075172A75182A75192A7B1605
:100F7C007D2A7F2A803AE509B4051775151C75166C
:100F8C001275170C75182A75192A7B1E7D167F2A67
:100F9C00801EE5096406600302104075151875166D
:100FAC001675170B75182A75192A7B0B7D2A7F2A43
:090FBC0002275CE5086411707B5A
:100FC50012295578247C007D007E007F071208D009
:100FD500E526C4540FF50AE526540FF50B750C2AC2
:100FE500E525C4540FF50DE525540FF50E750F2AAB
:100FF500E524C4540FF510E524540FF511850A2F87
:10100500850B30850D31850E32851033F5347535F8
:10101500AA7B007A00792F7D077C00122639850D81
:1010250015850E16850F17851018851119AB0CAD92
:0B1035000BAF0A12275C7FFF12295C42
:01104000228D
:10281000E4FF122517BF01057F011227147F011263
:0B2820002517BF01057F0212271422BC
:1021650012291CEF700EE52345227008054BE54B3F
:102175007002054AD3E54B9404E54A648094804097
:1021850005E4F54AF54BE5234522700FE54B64015F
:10219500454A70077D11FC7F0B8028E52345227099
:1021A5000FE54B6402454A70077D11FC7F4B801398
:1021B500E52345227012E54B6403454A700A7D11FB
:1021C500FC7F937E020222EAE52345227018E54B47
:1021D5006404454A70107D50FC7F107E031222EA8C
:0721E50075220075230122A1
:101BED00E54D6401454C700CE53A640145397004CE
:101BFD007F55804AE54D6401454C700EE53AB4FFC2
:101C0D0009E539B4FF047FAA8034E54D6402454CE3
:101C1D007004AF498028E54D6403454C700CE53ADE
:101C2D006401453970047FFF8014E54D6403454C14
:101C3D00700FE53AB4FF0AE539B4FF05E4FF122948
:101C4D005CAE39AF3A7CFF7DFF1209458E398F3A74
:101C5D00E549C39480500FE52E6401452D7007E5CD
:101C6D004925E0F54922E549D394014011E52EB40B
:101C7D00FF0CE52DB4FF07E549C313F54922E549EE
:101C8D0064806005E549B4010FAE2DAF2E7CFF7D5C
:091C9D00FF1209458E2D8F2E2245
:03297400022165D8
:10279C001228E1BF0116752FAA7530557531017BD2
:0C27AC00007A00792F7D037C0012263992
:0127B80022FE
:1024D5001229628F08E508B4011C752FAA753055BD
:1024E5007531027B007A00792F7D037C0012263935
:1024F500E4F522F52322E508B40216752FAA7530F6
:10250500557531037B007A00792F7D037C001226F7
:01251500398C
:0125160022A2
:101A5A00E4F50CFF7EC27D01FC121B3212282B1208
:101A6A0027D61227F31228F012273C1227B97D072E
:101A7A00E4FF12293378087C007D007B007A007924
:101A8A003B7E007F071208D012186B780F7C007D0E
:101A9A00007B007A00793B7E007F071208D012286B
:101AAA0078750D00750E00750F47751000751102D7
:101ABA007B007A0079427D057C001226087BFF7A3A
:101ACA001379C9750D01750E20750FF27DFA7F5ACB
:101ADA001221EC7BFF7A2479D57F0512226D7BFFD8
:101AEA007A27799C7F0612226D7BFF7A2879107FEC
:101AFA000412226D7BFF7A2579D47F0A12226D7B2C
:101B0A00FF7A0E794C7F0312226D7BFF7A1B79EDE7
:101B1A007F0212226D7BFF7A2979747F0112226D6E
:081B2A0012296812259680FBC8
:0426EC00151E151E84
:1026F00012293CA81EA60608A607A81EE6FE08E6A4
:0F270000FF4E600BEF24FFFFEE34FFFE12294562
:05270F00051E051E225D
:10273C0053B1EF43B21012297AE4F5D975DA49D2C4
:10274C00DE90004074FFF0A37426F0A374ECF0222A
:0822EA008E0E8F0F8C108D1178
:1022F20012293CEF4E7066AF11AE10122945C3E5AC
:102302000F940AE50E9400404BE47B18FAF9F8901A
:102312001397120B1C120A63C006C007AE0EAF0F52
:10232200AB07AA06E4F9F8D007D006120A63AB0796
:10233200AA06AFF9EFFEADE97C00E42DFFEC3ECF3B
:102342002BCF3AAD07FCAF03AE021228A3D2D8437B
:0F235200DA01800612297A53DAFE7F02227F0316
:012361002259
:0C291C0012293CEF4E7002FF227F0122C6
:101511005C007100070000000000000000000000F6
:101521000000000000000000000000000000004179
:07153100006F644100700A25
:04121C00151E151E68
:1012200090006FE014F0D36480948050107464F0E8
:10123000A3E014F0648094805003740AF0E4F58015
:1012400090008CE0FFB40800505F901251F82828FD
:101250007302126902126F02127502127B0212816E
:1012600002128B02129502129FC2A3C2A28016C262
:10127000A3C2A2801AC2A3C2A2801EC2A3C2A2801D
:1012800022C2A3D2A2C2A1C2A08020C2A3D2A2C263
:10129000A1D2A08016C2A3D2A2D2A1C2A0800CC2A9
:1012A000A3D2A2D2A1D2A08002D2A3C3EF64809421
:1012B00088504790008CE0FF3395E0FE747C2FF55A
:1012C0008274003EF583E0FD900070E0FCD3ED6495
:1012D00080F8EC648098402074732FF58274003E8F
:1012E000F583E0FF3395E0FE749B2FF58274133E87
:1012F000F583E493F580806E806990008CE0FF6454
:10130000087060EF3395E0FE74732FF58274003E31
:10131000F583E0A81EF6A81E08E4F6A81E08E6FF5E
:10132000C39408503774842FF582E43400F583E0C9
:10133000FF900070E0FED3EF6480F8EE6480985078
:1013400015A81E08E6FF7401A807088002C333D859
:10135000FCF4A81E56F6A81E080680BFA81EE6F5D7
:10136000808003E4F580900072E0FF90008CE00440
:10137000FEF0D3EF6480F8EE6480984015E0D3640B
:1013800080948850057408F08008900071E0900007
:021390008CF0DF
:05139200051E051E22EE
:10282B00E4F5937594FF5395F043960F90002B743A
:0B283B00FFF0A37412F0A3741CF02245
:09293300900071EFF0A3EDF02219
:10275C00900073EFF0A3EDF0A3EBF0A3E515F0A35D
:10276C00E516F0A3E517F0A3E518F0A3E519F022A0
:06295C0090007BEFF02269
:101F3000EFF5823395E0F583E582F4458360059003
:101F4000007CEFF0EDFF3395E0FEEFF44E6005907E
:101F5000007DEDF0EBFF3395E0FEEFF44E60059071
:101F6000007EEBF0AF62EF3395E0FEEFF44E6006DB
:101F700090007FE562F0AF63EF3395E0FEEFF44E43
:101F80006006900080E563F0AF64EF3395E0FEEF0C
:101F9000F44E6006900081E564F0AF65EF3395E0A4
:101FA000FEEFF44E6006900082E565F0AF66EF3319
:0F1FB00095E0FEEFF44E6006900083E566F022A8
:101FBF00EFF5823395E0F583E582F4458360059074
:101FCF00008BEFF0EDFF3395E0FEEFF44E600590E0
:101FDF00008AEDF0EBFF3395E0FEEFF44E600590D5
:101FEF000089EBF0AF6AEF3395E0FEEFF44E600639
:101FFF00900088E56AF0AF6BEF3395E0FEEFF44E9B
:10200F006006900087E56BF0AF6CEF3395E0FEEF65
:10201F00F44E6006900086E56CF0AF6DEF3395E0FF
:10202F00FEEFF44E6006900085E56DF0AF6EEF3376
:0F203F0095E0FEEFF44E6006900084E56EF0220F
:101538004100CA00011C004100C7054100C88341A1
:0315480000C98354
:102492002092069000C8E014F09000C7E014F0709B
:1024A200317405F0A3E0FFC39480500BA3E0948045
:1024B2004015751C01800C9000C9E0C39480500740
:1024C200751C02A37401F09000C9EFF09000C8746B
:0224D20083F095
:0124D40022E5
:0228B400151EEF
:0A28B6009000CAE0A81EF6FFE4F04F
:0328C000051E22D0
:1027B90090003774FFF0A37428F0A374B4F090006C
:0D27C9003474FFF0A37424F0A37492F02286
:05296200AF1CE4F51CB0
:01296700224D
:10154B004100B4004900B594940094940094940025
:04155B004100B31E7A
:02161E00151E97
:1016200020B2069000B5E014F020B3069000B8E0B8
:1016300014F02097069000BBE014F09000B3E01483
:10164000F06003021742741EF0A81EE4F6A81EE61E
:10165000FFC3648094834003021742EF3395E0FE9A
:101660009000B575F003EF120B38EE75F003A4256A
:1016700083F583E0C39480503B9000B675F003EF90
:10168000120B38EE75F003A42583F583E0D3948024
:10169000405EE6FF3395E0FE9000B775F003EF1271
:1016A0000B38EE75F003A42583F5837401F09000E8
:1016B000B4F0803CA81EE6FF3395E0FE9000B675BE
:1016C000F003EF120B38EE75F003A42583F583E0E9
:1016D000C39480501B9000B775F003EF120B38EEE7
:1016E00075F003A42583F5837402F09000B414F020
:1016F000A81EE6FFFD3395E0FC9000B575F003ED04
:10170000120B38EC75F003A42583F583E0FE9000FE
:10171000B675F003ED120B38EC75F003A42583F5D4
:1017200083EEF0EF3395E0FE9000B575F003EF1215
:101730000B38EE75F003A42583F5837494F006024C
:02174000164D44
:03174200051E225F
:0228C300151EE0
:0A28C5009000B4E0A81EF6FFE4F056
:0328CF00051E22C1
:1027D60090003174FFF0A37428F0A374C3F0900046
:0D27E6002E74FFF0A37416F0A3741EF022F1
:10251700EF600764016003BF0233EFFD3395E0FC12
:102527009000B775F003ED120B38EC75F003A42596
:1025370083F583E0FE9000B775F003ED120B38ECDE
:0F25470075F003A42583F583E4F0AF06227F032C
:012556002262
:10155F004100000A41002A0A41006E0A04540000AB
:10156F0000000159004600680000FFFF8FFFC10D0A
:10157F00C105C108C101C10E60240005FF297DFF0F
:10158F00297DFF297DFF297DFF297DFF297DFF29EA
:10159F007DFF297DFF297DFF297DFF297DFF297D86
:1015AF006036002BFF297DFF297DFF2977FF297DDD
:1015BF00FF2977FF297DFF2977FF297DFF297DFFF0
:1015CF00297DFF2977FF2977FF2977FF2977FF29C2
:0A15DF007DFF297DFF297DFF297D96
:01297D002237
:032977007F0022BC
:10240700438E805389F07BE07A2879017800901316
:1024170097120B1C12244EEFF404F58A7BE07A28FE
:1024270079017800901397120B1C12244EC3E49F76
:10243700FFE49EFE74019DFDE49CFC7808120B08E6
:072447008F8CD28CD2A92278
:03000B000223B518
:0423B500C0E0C0D0F4
:1023B900D54E0A754E4C300D020559D20DA2037245
:1023C9000450361550E5507030855250D207300A06
:1023D90017E55360071553438F01801D538FFEC2C4
:1023E900B5D55B15C20A80110551E551D394064054
:0923F90008C203E5586002D20697
:05240200D0D0D0E03253
:10236200300E47C20E901397120B1C7810120B08F6
:102372008E1A8F1B900003E0FEA3E0FFE4FCFD7BBE
:1023820019FAF9F81209D8C006C007AE1AAF1BAB8A
:1023920007AA06E4F9F8D007D00612244E780312F1
:1023A2000B08900066EEF0A3EFF0900066E0FEA34B
:0223B200E0FF4A
:0123B4002206
:09293C00900068E0FEA3E0FF2218
:09294500900068EEF0A3EFF0220F
:1028A30090006CEEF0A3EFF090006AECF0A3EDF073
:0128B3002202
:03297A00C2B422C2
:03003B00021D5053
:101D5000C0E0C083C082C0D075D000C004C005C040
:031D600006C007B3
:101D630030DF04C2DF807D30DA04C2DA807630D916
:101D73003DC2D9AFFBEFFEADEB7C00E42DFFEC3EA3
:101D830020000E900001F0A3EFF075DB11D200806C
:101D930053FE900001E0FCA3E0FDC3EF9DFFEE9C2A
:101DA300A3F0A3EFF075DB00C200D20E803630D86B
:101DB30033C2D8900068E07002A3E06022B2B4900E
:101DC300006AE0FEA3E0F5EAEEF5FAA3E0FEA3E085
:101DD300FF90006BE02FF090006AE03EF08005C2B8
:041DE300B453DAFE1D
:101DE700D007D006D005D004D0D0D082D083D0E0A1
:011DF70032B9
:06296800122407D2AF2289
:1020DA003004047F0180027F00200A047E0180020E
:1020EA007E00EE5F6074E55AC3954F506830023641
:1020FA00755301E55A131313541FAB5CAA5DA95E0D
:10210A00F5827583001208F6FFE55A540704FEEFBC
:10211A00A806088002C333D8FC30D705755B038054
:10212A002F755B01802AAB5CAA5DA95E75F002E59A
:10213A005AA4F58285F0831208F6F553E55A75F02C
:10214A0002A429F9EA35F0FA9000011208F6F55BC3
:0A215A00055AD20A22C204438F1076
:012164002258
:10196900900000E014F0701F740AF0D20590002A6C
:10197900E014F07012740AF0D20890006EE014F0CE
:101989007005740AF0D20190002BA3E0FAA3E0F9E4
:10199900120B4490002EA3E0FAA3E0F9120B449035
:1019A900003AA3E0FAA3E0F9120B44900046A3E041
:1019B900FAA3E0F9120B44900055A3E0FAA3E0F969
:1019C900120B4490005EA3E0FAA3E0F9120B4490D5
:1019D900004CA3E0FAA3E0F9120B44EF600C90006D
:1019E9001DA3E0FAA3E0F9120B4490004FA3E0FA1B
:1019F900A3E0F9120B44EF600E900020A3E0FAA3D4
:101A0900E0F9120B44D20B900029E0D3940040185E
:101A1900E014F0703030090C900023A3E0FAA3E041
:101A2900F9120B44D20C801D900052A3E0FAA3E0F6
:101A3900F9120B44EF600E900023A3E0FAA3E0F93A
:101A4900120B44D20C900005A3E0FAA3E0F9020BB3
:011A59004448
:101E9D00900040A3E0FAA3E0F9120B44900043A395
:101EAD00E0FAA3E0F9120B44900034A3E0FAA3E0AA
:101EBD00F9120B44900008A3E0FAA3E0F9120B44C9
:101ECD00900031A3E0FAA3E0F9120B44EF600C90FF
:101EDD000011A3E0FAA3E0F9120B44900037A3E040
:101EED00FAA3E0F9120B44EF600C900017A3E0FA8F
:101EFD00A3E0F9120B44900049A3E0FAA3E0F91214
:101F0D000B44EF600C90001AA3E0FAA3E0F9120B5A
:101F1D004430060EC206900026A3E0FAA3E0F912A3
:031F2D000B442240
:1025570090000BA3E0FAA3E0F9120B4490003DA30F
:10256700E0FAA3E0F9120B44EF600C900014A3E02B
:10257700FAA3E0F9120B44900058A3E0FAA3E0F99C
:0F258700120B4490005BA3E0FAA3E0F9020B44AF
:10269800AF57AE56AD55AC54900061120B2C90005C
:1026A80065E559F0E4F557F556F555F554F55990A3
:0B26B800000EA3E0FAA3E0F9020B44BF
:10259600300705C2071220DA300D05C20D1219697F
:1025A600300505C205121E9D300805C208122557C2
:1025B600300105C201122698E5572401F557E43586
:0E25C60056F556E43555F555E43554F55422D6
:10226D008B088A09890AEFB40C005070902280F80F
:10227D002828730222A40222A90222AE0222B3024E
:10228D0022B80222BD0222C20222C70222CC0222A1
:10229D00D10222D60222DB90000580359000088005
:1022AD003090000B802B90000E8026900011802125
:1022BD00900017801C900014801790001A801290C7
:1022CD00001D800D90002080089000238003900059
:0D22DD0026E508F0A3E509F0A3E50AF022CC
:07294E007B017A0079612290
:0815E9004100CC004100CB00E1
:0E290E0020A40A9000CC7401F09000CBF022BF
:0228D200151ED1
:0A28D4009000CCE0A81EF6FFE4F02F
:0328DE00051E22B2
:1027F30090003D74FFF0A37428F0A374D2F090000E
:0D2803003A74FFF0A37429F0A3740EF022C4
:0228E100151EC2
:0A28E3009000CBE0A81EF6FFE4F021
:0328ED00051E22A3
:1017450000C400DC00F701060126014A0172018888
:1017550001B801EE020B024B029302E40310037081
:1017650003DC04160497052605C800DC00F70115FF
:101775000126014A0172019F01B801EE022A024BBE
:10178500029302E4033F037003DC04550497052626
:1017950005C8067D00F701150137014A0172019F51
:1017A50001D201EE022A026E029302E4033F03A472
:1017B50003DC045504DD057505C8067D07490106EA
:1017C5000126014A015D018801B801EE020B024BB9
:1017D500029302BA0310037003DC0416049705266E
:1017E5000575062006E007B80126014A0172018841
:1017F50001B801EE022A024B029302E403100370C2
:1018050003DC04550497052605C8062006E007B83D
:1018150008AA014A0172019F01B801EE022A026E6F
:10182500029302E4033F037003DC045504DD05263F
:1018350005C8067D06E007B808AA09B9015D018853
:1018450001B801D2020B024B029302BA03100370D6
:1018550003A40416049705260575062006E0074926
:06186500082D092D0A4DBB
:1015F1004D00A603000000000000000000000000F4
:061CA6008F088D098B0A76
:101CAC0012291CEF60037F0122E50AD39400400641
:101CBC00E50A94114028E50AD394174006E50A94E6
:101CCC0021401BE50AD394274006E50A9431400EC7
:101CDC00E50AD394375007E508C394F950037F0302
:101CEC0022E50A603DC4540F75F007A4FDACF0E585
:101CFC000875F015A42DFFE5F03CFEE50A54077CB1
:101D0C00002FFFEC3EFEEF25E0FFEE33FE745B2F61
:101D1C00F58274EE3EF583E493F50C740193F50DA6
:101D2C008005E4F50CF50DAF0B7E007C017D771280
:101D3C000945AD091C120957AD07AC06AF0DAE0C29
:031D4C001222EA76
:011D4F002271
:040B4A00151E151E41
:100B4E0012291CEF70047F0180027F009000A6E046
:100B5E00FEB402047D0180027D00ED5F6003020E93
:100B6E0047EEB40316E49000A4F0A3F09000AFF0AB
:100B7E00A3F0A3F0A3F0C20F020E479000A7E0FF70
:100B8E00B4F3047E0180027E00EFB4F1047F018095
:100B9E00027F00EF4E603E9000A9E0FE75F0648487
:100BAE00FFEE75F00A8475F00A84ADF0E075F00A78
:100BBE0084ABF075150A9000A8E02407F516900096
:100BCE00A3E0FEC4540F240AF51775180AEE540755
:100BDE00F51912275C9000A7E0FFB4F3047E0180A4
:100BEE00027E00EFB4F2047F0180027F00EF4E70B0
:100BFE0003020CA09000A9E0FD7C007E177F70120E
:100C0E000957A81EA607E6F975F002A4FFC39000C7
:100C1E00B2E09F9000B1E095F05070E0FEA3E0FFCF
:100C2E007C007D0B120945E9FBFD120957A81E0831
:100C3E00A6079000B1E475F0011209C2FED3E5F0EB
:100C4E009BEE94004018A81E08E624F9FFE47EF0FF
:100C5E00A807088005CEC313CE13D8F9801FA81E8F
:100C6E0008E6FF740F7E00A807088005C333CE3355
:100C7E00CED8F97804CEA2E713CE13D8F8A81E0862
:100C8E00F6A81E08E6FF12295C8007E49000B1F07A
:100C9E00A3F09000ADE0FEA3E0FFC39000B0E09F94
:100CAE009000AFE09E4003020E4112291CEF60033C
:100CBE00020E479000AAE0FBA3E0FAA3E0F9900031
:100CCE00AFE0FEA3E0F5828E831208F6FFD39437D1
:100CDE005003020DDCEF241024FC5079604524FEF5
:100CEE007003020D87147003020D9D24026003022F
:100CFE000DCB9000AAE0FBA3E0FAA3E0F99000AFC1
:100D0E00E475F0011209AC85F082F5831208F690B5
:100D1E0000A8F09000B0E004F070989000AFE004EE
:100D2E00F080909000AAE0FBA3E0FAA3E0F9900017
:100D3E00AFE475F0011209AC85F082F5831208F666
:100D4E009000A9F09000B0E004F0706E9000AFE05B
:100D5E0004F0020CC19000AAE0FBA3E0FAA3E0F9B4
:100D6E009000AFE475F0011209C285F082F583128E
:100D7E0008F69000A7F0020CC19000AFE475F001E8
:100D8E001209ACAFF09000A4F0A3EFF0020CC190EA
:100D9E0000A4E0FEA3E0FF4E60129000AFEEF0A3C1
:100DAE00EFF0E49000A4F0A3F0020CC19000B0E0CC
:100DBE0004F070069000AFE004F0020CC19000B099
:100DCE00E004F070069000AFE004F0020CC1900059
:100DDE00ADE0FEA3E0FFC39000B0E09F9000AFE057
:100DEE009E50569000AAE0FBA3E0FAA3E0F9900013
:100DFE00AFE475F0011209C285F082F5831208F690
:100E0E009000A3F09000A8E0FFA3E0FDA3E0FBA3F9
:100E1E00E0FAA3E0F99000AFE475F0011209C28583
:100E2E00F082F5831208F6F50B9000A3E0FB121C7E
:090E3E00A680069000A67403F0E2
:050E4700051E051E223E
:0F28F00090004374FFF0A3740BF0A3744AF0221E
:1021EC008B0A8A0B890C9000AAE0FBA3E0FAA3E00F
:1021FC00F9E50A850B83850C826B7008E9658270A2
:10220C0003EA6583600DE49000AFF0A3F0A3F0A3A4
:10221C00F0C20FEF60049000A9F0ED60049000A8EC
:10222C00F0AB0AAA0BA90CAE02AF01EF4E60047F13
:10223C000180027F00E50E450D60047E0180027E68
:10224C0000EE5F60139000AAEBF0A3EAF0A3E9F0B4
:10225C00A3E50DF0A3E50EF0E50F60049000A7F0E8
:01226C00224F
:10271400BF02047E0180027E00BF01047D018002AD
:102724007D00ED4EFEBF03047D0180027D00ED4E71
:0827340060059000A6EFF02201
:06296E009000A6E0FF222C
:041601004100C601DD
:10284600C295E4FEEF1392CC000000D29500EFC3D0
:0828560013FFC2950EBE08EC51
:01285E002257
:10285F00E4FFFEEFC313FF30CC03430780D2950094
:08286F000000C2950EBE08EB4B
:01287700223E
:10266A00F07F8512267DA3EFF07F8712267DA3EFE8
:03267A00F07F8965
:10267D00C296000000C295000000D29600122846B6
:0A268D0012285FD295000000C296EB
:012697002220
:03277C00A3E0FDDA
:10277F00C296000000C295000000D29600122846B3
:0D278F00AF05122846D295000000C2962228
:072955007B017A0079BF222B
:1028780078BF7C007D017B007A00790F7E007F079E
:092888001208D0E49000C6F02211
:10289100EFD3941F5009EF25E044C1FF02267D7F4D
:0228A100012212
:1026C300AC07AB05ECD3941F501CE4FD7F8E12279F
:1026D3007FEC25E044C0FFAD0312277F7D807F8E12
:0926E30012277F7F00227F0122F3
:021DF800151EB6
:101DFA009000C6E060447F8112267DA81EEFF6900F
:101E0A0000BFE06F7003021E9AA81EE6F07F8312DD
:101E1A00267DA81EEFF6A3E06F6075A81EE61226BF
:101E2A006AA3EFF07F8D12267D9000C5EFF07F8BBD
:101E3A0012267D9000C4EFF080569000BEE0FF04A9
:101E4A00F0EFC3940A4049E4F09000C604F0E4FDC0
:101E5A007F8E12277F9000BFE0FD7F8012277F7F51
:101E6A008212277C7F8412277CA3E0FD7F861227BB
:101E7A007FA3E0FD7F8812277FA3E0FD7F8A1227D8
:101E8A007FA3E0FD7F8C12277F7D807F8E12277FC4
:031E9A00051E2200
:10186B007F8112267D9000BFEFF07F8312267DA330
:10187B00EF12266AA3EFF07F8B12267DA3EFF07F8A
:10188B008D12267DA3EFF0E4FD7F8E12277F7F1E46
:10189B00122891EF64A560047F0180027F00900005
:1018AB00BFE05480FEA3E0D3945940047D01800235
:1018BB007D00ED4EFE9000C1E0D394A440047D0169
:1018CB0080027D00ED4EFE9000C2E0D394314004C7
:1018DB007D0180027D00ED4EFE9000C3E0D394129B
:1018EB0040047D0180027D00ED4EFE9000C4E0D3EC
:1018FB00940740047D0180027D00ED4EFE9000C5F3
:10190B00E0D3949940047D0180027D00ED4E4F6041
:10191B0030780F7C007D007B007A0079087E007F99
:10192B00071208D01228787DA57F1E1226C378BF18
:10193B007C007D017B007A0079087E007F0712080E
:10194B00D07DA97F9012277F7D807F8E12277F907D
:0E195B00005B74FFF0A3741DF0A374F8F0227B
:1016050055008E00000000000000000000000000F2
:081615000000010000000000CC
:0300430002104167
:10104100C0E0C0F0C083C082C0D075D000C000C075
:1010510001C002C003C004C005C006C007E59A3044
:10106100E144539AFD900093E0FEA3E0FFC390009A
:1010710092E09F900091E09E501F90008EE0FBA3B4
:10108100E0FAA3E0F9A3E475F0011209C285F08248
:10109100F5831208F6F59B800D900095E4F0900021
:1010A1008DE06002C2B7E59A20E003021201539A73
:1010B100FE300C0BC20C90009BE4F0A3F0D209901F
:1010C100008DE064026003021159900099E0FEA3D3
:1010D100E0FFA3E0FCA3E0FDC39FEC9E50719000F4
:1010E10096E0FBA3E0FAA3E0F98D828C83E59B12E5
:1010F10009239000A1E0FEA3E0FFC3ED9FEC9E5009
:1011010040900099E0FCA3E0FDEF9DEE9C503290F1
:10111100009EE0FBA3E0FAA3E0F990009BE0FEA3B0
:10112100E0FFF5828E831208F6FD900096E0FBA3A6
:10113100E0FAA3E0F98F828E831208F66D6002C295
:101141000990009CE004F0700690009BE004F09090
:101151000029E51DF0021201900099E0FEA3E0FFD5
:10116100A3E0FCA3E0FDC39FEC9E5077900096E0C6
:10117100FBA3E0FAA3E0F98D828C83E59B1209239E
:101181009000A1E0FEA3E0FFC3ED9FEC9E504690CE
:101191000099E0FCA3E0FDEF9DEE9C503890009E8D
:1011A100E0FBA3E0FAA3E0F990009BE0FEA3E0FFDF
:1011B100F5828E831208F6FD900096E0FBA3E0FA1B
:1011C100A3E0F98F828E831208F66D600890009B70
:1011D10074FFF0A3F090009CE004F0700690009B77
:1011E100E004F0900099E0FEA3E0FFC390009CE0D2
:1011F1009F90009BE09E400890009D7401F0D20CEE
:10120100D007D006D005D004D003D002D001D00041
:0B121100D0D0D082D083D0F0D0E032EB
:0228FF00151EA4
:0A29010090009DE0A81EF6FFE4F030
:03290B00051E2284
:01297E002236
:101B32008F0B8E0A8D098C0890008DE50CF07002D7
:101B4200800343BA0190008DE0701790005E74FF2D
:101B5200F0A37429F0A3747EF0E4F5DBD290D29165
:101B62008023C2B7AB0BAA0AA909A808E47F407E6A
:101B72009CFDFC120A638F1DE51D7003751D01900B
:101B82000029E51DF0759A10E47B04FAF9F8901328
:101B920097120B1C120A63AB0BAA0AA909A8081216
:101BA2000A63EFF404F5D7E47B04FAF9F89013978B
:101BB200120B1C120A63AB0BAA0AA909A808120A83
:101BC20063C3E49FFFE49EFE74019DFDE49CFC78E8
:101BD20008120AF58FD6438E1443AF019000527457
:0B1BE200FFF0A37428F0A374FFF022B2
:10260800900096EBF0A3EAF0A3E9F0A3ECF0A3EDB9
:10261800F09000A1E510F0A3E511F090009EE50D03
:10262800F0A3E50EF0A3E50FF0D20CE490009DF0C6
:01263800227F
:10263900900095E0702890008DE06002D2B790007C
:102649008EEBF0A3EAF0A3E9F0E4A3F0A3F0A3EC86
:10265900F0A3EDF0A37401F0439A027F02227F03F5
:01266900224E
:0B292800900095E07002FF227F01226A
:0300000002204E8D
:0C204E00787FE4F6D8FD75816E022095C5
:10080000E709F608DFFA8046E709F208DFFA803EDA
:1008100088828C83E709F0A3DFFA8032E309F608C7
:10082000DFFA8078E309F208DFFA807088828C832F
:10083000E309F0A3DFFA806489828A83E0A3F608E3
:10084000DFFA805889828A83E0A3F208DFFA804CBD
:1008500080D280FA80C680D4806980F28033801094
:1008600080A680EA809A80A880DA80E280CA8033FD
:1008700089828A83ECFAE493A3C8C582C8CCC58375
:10088000CCF0A3C8C582C8CCC583CCDFE9DEE78045
:100890000D89828A83E493A3F608DFF9ECFAA9F0C4
:1008A000EDFB2289828A83ECFAE0A3C8C582C8CC1A
:1008B000C583CCF0A3C8C582C8CCC583CCDFEADE33
:1008C000E880DB89828A83E493A3F208DFF980CC95
:1008D00088F0EF60010E4E60C388F0ED2402B4048E
:1008E0000050B9F582EB2402B4040050AF23234535
:0608F00082239008507302
:1008F600BB010CE58229F582E5833AF583E02250B7
:1009060006E92582F8E622BBFE06E92582F8E22200
:0D091600E58229F582E5833AF583E493221A
:10092300F8BB010DE58229F582E5833AF583E8F00A
:10093300225006E92582C8F622BBFE05E92582C8B6
:02094300F2229E
:10094500EF8DF0A4A8F0CF8CF0A428CE8DF0A42EC6
:02095500FE2280
:10095700BC000BBE0029EF8DF084FFADF022E4CC84
:10096700F875F008EF2FFFEE33FEEC33FCEE9DEC4D
:10097700984005FCEE9DFE0FD5F0E9E4CEFD22ED93
:10098700F8F5F0EE8420D21CFEADF075F008EF2FDD
:10099700FFED33FD4007985006D5F0F222C398FDCE
:0509A7000FD5F0EA226B
:1009AC00C5F0F8A3E028F0C5F0F8E58215827002D6
:0609BC001583E038F02273
:1009C200A3F8E0C5F025F0F0E582158270021583E8
:0609D200E0C838F0E82245
:1009D800E88FF0A4CC8BF0A42CFCE98EF0A42CFCBE
:1009E8008AF0EDA42CFCEA8EF0A4CDA8F08BF0A43C
:1009F8002DCC3825F0FDE98FF0A42CCD35F0FCEB9B
:100A08008EF0A4FEA9F0EB8FF0A4CFC5F02ECD395F
:0F0A1800FEE43CFCEAA42DCE35F0FDE43CFC22CC
:100A270075F008758200EF2FFFEE33FECD33CDCC86
:100A370033CCC58233C5829BED9AEC99E582984009
:100A47000CF582EE9BFEED9AFDEC99FC0FD5F0D6E6
:100A5700E4CEFBE4CDFAE4CCF9A88222B800C1B910
:100A67000059BA002DEC8BF084CFCECDFCE5F0CB4E
:100A7700F97818EF2FFFEE33FEED33FDEC33FCEB87
:100A870033FB10D703994004EB99FB0FD8E5E4F942
:100A9700FA227818EF2FFFEE33FEED33FDEC33FC2F
:100AA700C933C910D7059BE99A4007EC9BFCE99A23
:100AB700F90FD8E0E4C9FAE4CCFB2275F010EF2F68
:100AC700FFEE33FEED33FDCC33CCC833C810D70768
:100AD7009BEC9AE899400AED9BFDEC9AFCE899F8A3
:0E0AE7000FD5F0DAE4CDFBE4CCFAE4C8F92236
:10244E00C2D5E830E70FB2D5E4C39BFBE49AFAE4B9
:10245E0099F9E498F8EC30E717B2D5122484120AF1
:10246E0063E4C39BFBE49AFAE499F9E498F88003D9
:10247E00120A6330D50DE4C39FFFE49EFEE49DFD7A
:04248E00E49CFC22AC
:100AF500E8600FECC313FCED13FDEE13FEEF13FFDF
:030B0500D8F12202
:100B0800E86010ECA2E713FCED13FDEE13FEEF1303
:040B1800FFD8F022F0
:100B1C00E493FC740193FD740293FE740393FF221F
:0C0B2C00ECF0A3EDF0A3EEF0A3EFF0223C
:0C0B3800A42582F582E5F03583F58322C8
:060B44008A838982E4733C
:10205A00021A5AE493A3F8E493A34003F68001F228
:10206A0008DFF48029E493A3F85407240CC8C33387
:10207A00C4540F4420C8834004F456800146F6DF56
:10208A00E4800B01020408102040809014E9E47EE9
:10209A00019360BCA3FF543F30E509541FFEE4934B
:1020AA00A360010ECF54C025E060A840B8E493A312
:1020BA00FAE493A3F8E493A3C8C582C8CAC583CA3D
:1020CA00F0A3C8C582C8CAC583CADFE9DEE780BEF5
:01161D0000CC
:00000001FF
