:10173D0000A8C0003F065B4F666D7D077F6F777C0D
:10174D00395E79713D76061E753815545C736B5094
:10175D006D783E1C2A766E5B5F7C585E7B71408097
:10176D0000630008250427043104270431043204E2
:10177D0033200008260831083308320831082708BD
:10178D0025080008260427043104270431043204F7
:10179D0033200008260831043308350400100008F2
:1017AD0026083104260431042604310426043104AC
:1017BD0026042608310831043208271400082604AF
:1017CD00260431042604310426043104260426049B
:0E17DD00260433083308320431082724001094
:1010AC00020A000002080001021B0000021D0001E0
:0F10BC0002110001011A02020C00010218AA55CC
:10212000AF15851633851634EF64016003BF0208CE
:10213000751D00751E028013EF7007F51D751E01D9
:102140008009BF0306751D00751E03BF0305E4F576
:0321500008F50986
:012153002269
:10168600851533851634E5337073E5347002807240
:10169600E534B4011575381D753928753A26753B3C
:1016A6001D753C2A7B287D0D804FE534B4021575E7
:1016B6003818753920753A1C753B28753C2A7B1BF2
:1016C6007D0B8035E534B4031775381275391475FA
:1016D6003A24753B11753C2A7B287D117F1C80536B
:1016E600E5346404705075381B75391D753A1175EB
:1016F6003B2A753C2A7B247D0E7F2A8036E533B44F
:10170600011775381D753912753A15753B1E753CEE
:101716001C7B1E7D0A7F17801AE533B403187538C3
:101726002A75390D753A0A753B23753C0E7B1D7D6E
:061736000E7F101222518B
:01173C00228A
:1022E500E4FF122063BF01057F011222097F01125D
:0B22F5002063BF01057F0212220922B6
:101CB100122394EF700EE50945087008051CE51C18
:101CC1007002051BD3E51C9404E51B6480948040DD
:101CD10005E4F51BF51CE5094508700FE51C6401D9
:101CE100451B70077D19FC7F0B8028E509450870AD
:101CF1000FE51C6402451B70077D19FC7F4B8013A7
:101D0100E50945087012E51C6403451B700A7D193D
:101D1100FC7F937E02021E36E50945087018E51C1A
:101D21006404451B70107D50FC7F107E03121E362B
:071D3100750800750901228D
:1015CD00E51E6401451D700CE512640145117004A2
:1015DD007F55804AE51E6401451D700EE512B4FF6E
:1015ED0009E511B4FF047FAA8034E51E6402451D90
:1015FD007004AF1A8028E51E6403451D700CE512BA
:10160D006401451170047FFF8014E51E6403451DC0
:10161D00700FE512B4FF0AE511B4FF05E4FF1223C4
:10162D00CDAE11AF127CFF7DFF120B518E118F12BB
:10163D00E51AC39480500FE50D6401450C7007E564
:10164D001A25E0F51A22E51AD394014011E50DB4DF
:10165D00FF0CE50CB4FF07E51AC313F51A22E51AC2
:10166D0064806005E51AB4010FAE0CAF0D7CFF7DF3
:09167D00FF120B518E0C8F0D229F
:0323E500021CB126
:10227100122359BF0116750EAA750F557510017BF2
:0C228100007A00790E7D037C001221859C
:01228D00222E
:102021001223D38F33E533B4011C750EAA750F55F6
:102031007510027B007A00790E7D037C00122185E8
:10204100E4F508F50922E533B40216750EAA750FF9
:10205100557510037B007A00790E7D037C001221F7
:0120610085F9
:01206200225B
:1017EB00E4F537FF7EC27D01FC12151212230012A5
:1017FB0022AB1222C812236812223112228E7D07CD
:10180B00E4FF1223AB753800753900753A18753B38
:10181B0000753C027B007A0079137D057C00122158
:10182B00547BFF7A17796F75380075397C753AF2EE
:10183B007DFA7F6E121D387BFF7A2079217F05128E
:10184B001DB97BFF7A2279717F06121DB97BFF7A56
:10185B002279E57F04121DB97BFF7A2179207F0A5B
:10186B00121DB97BFF7A1679867F03121DB97BFF98
:10187B007A1579CD7F02121DB97BFF7A2379E57F2B
:0C188B0001121DB91223D91220E280FBCB
:0421E1001550155030
:1021E5001223B4A850A60608A607A850E6FE08E6DE
:0F21F500FF4E600BEF24FFFFEE34FFFE1223BD01
:05220400055005502209
:1022310053B1EF43B2101223EBE4F5D975DA49D269
:10224100DE90004074FFF0A37421F0A374E1F0224A
:081E36008E398F3A8C3B8D3C84
:101E3E001223B4EF4E7066AF3CAE3B1223BDC3E52A
:101E4E003A940AE5399400404BE47B18FAF9F8907D
:101E5E00173D120D28120C6FC006C007AE39AF3AEF
:101E6E00AB07AA06E4F9F8D007D006120C6FAB0741
:101E7E00AA06AFF9EFFEADE97C00E42DFFEC3ECFF4
:101E8E002BCF3AAD07FCAF03AE0212231BD2D843C1
:0F1E9E00DA0180061223EB53DAFE7F02227F0364
:011EAD002212
:0C2394001223B4EF4E7002FF227F0122E2
:1010CB005C00710007000000000000000000000041
:1010DB0000000000000000000000000000000041C4
:0710EB00006F644100700A70
:040F310015501550F2
:100F350090006FE014F0D36480948050107464F0D6
:100F4500A3E014F0648094805003740AF0E4F58003
:100F550090008CE0FFB40800505F900F66F82828D9
:100F650073020F7E020F84020F8A020F90020F9602
:100F7500020FA0020FAA020FB4C2A3C2A28016C21A
:100F8500A3C2A2801AC2A3C2A2801EC2A3C2A2800B
:100F950022C2A3D2A2C2A1C2A08020C2A3D2A2C251
:100FA500A1D2A08016C2A3D2A2D2A1C2A0800CC297
:100FB500A3D2A2D2A1D2A08002D2A3C3EF6480940F
:100FC50088504790008CE0FF3395E0FE747C2FF548
:100FD5008274003EF583E0FD900070E0FCD3ED6483
:100FE50080F8EC648098402074732FF58274003E7D
:100FF500F583E0FF3395E0FE74412FF58274173ECB
:10100500F583E493F580806E806990008CE0FF6441
:10101500087060EF3395E0FE74732FF58274003E1F
:10102500F583E0A850F6A85008E4F6A85008E6FFB6
:10103500C39408503774842FF582E43400F583E0B7
:10104500FF900070E0FED3EF6480F8EE6480985066
:1010550015A85008E6FF7401A807088002C333D815
:10106500FCF4A85056F6A850080680BFA850E6F52F
:10107500808003E4F580900072E0FF90008CE0042E
:10108500FEF0D3EF6480F8EE6480984015E0D364F9
:1010950080948850057408F08008900071E09000F5
:0210A5008CF0CD
:0510A700055005502278
:10230000E4F5937594FF5395F043960F90002B746A
:0B231000FFF0A3740FF0A37431F02263
:0923AB00900071EFF0A3EDF022A7
:10225100900073EFF0A3EDF0A3EBF0A3E538F0A34A
:10226100E539F0A3E53AF0A3E53BF0A3E53CF02224
:0623CD0090007BEFF022FE
:101A7C00EFF5823395E0F583E582F44583600590BC
:101A8C00007CEFF0EDFF3395E0FEEFF44E60059037
:101A9C00007DEDF0EBFF3395E0FEEFF44E6005902A
:101AAC00007EEBF0AF40EF3395E0FEEFF44E6006B6
:101ABC0090007FE540F0AF41EF3395E0FEEFF44E40
:101ACC006006900080E541F0AF42EF3395E0FEEF09
:101ADC00F44E6006900081E542F0AF43EF3395E0A1
:101AEC00FEEFF44E6006900082E543F0AF44EF3316
:0F1AFC0095E0FEEFF44E6006900083E544F02283
:101B0B00EFF5823395E0F583E582F445836005902C
:101B1B00008BEFF0EDFF3395E0FEEFF44E60059098
:101B2B00008AEDF0EBFF3395E0FEEFF44E6005908D
:101B3B000089EBF0AF48EF3395E0FEEFF44E600613
:101B4B00900088E548F0AF49EF3395E0FEEFF44E97
:101B5B006006900087E549F0AF4AEF3395E0FEEF62
:101B6B00F44E6006900086E54AF0AF4BEF3395E0FC
:101B7B00FEEFF44E6006900085E54BF0AF4CEF3373
:0F1B8B0095E0FEEFF44E6006900084E54CF022EA
:1010F2004100C100011F004100BE054100BF834104
:0311020000C083A7
:101FDE002092069000BFE014F09000BEE014F07066
:101FEE00317405F0A3E0FFC39480500BA3E09480FE
:101FFE004015751F01800C9000C0E0C394805007FF
:10200E00751F02A37401F09000C0EFF09000BF7432
:02201E0083F04D
:01202000229D
:02232C0015504A
:0A232E009000C1E0A850F6FFE4F0B3
:032338000550222B
:10228E0090003774FFF0A37423F0A3742CF0900029
:0D229E003474FFF0A3741FF0A374DEF0226F
:0523D300AF1FE4F51F3F
:0123D80022E2
:101105004100B4004900B59494009494009494006F
:041115004100B31EC4
:0211D4001550B4
:1011D60020B2069000B5E014F020B3069000B8E007
:1011E60014F02097069000BBE014F09000B3E014D2
:1011F600F060030212F8741EF0A850E4F6A850E658
:10120600FFC36480948340030212F8EF3395E0FE37
:101216009000B575F003EF120D44EE75F003A425AA
:1012260083F583E0C39480503B9000B675F003EFDE
:10123600120D44EE75F003A42583F583E0D3948064
:10124600405EE6FF3395E0FE9000B775F003EF12BF
:101256000D44EE75F003A42583F5837401F0900028
:10126600B4F0803CA850E6FF3395E0FE9000B675DA
:10127600F003EF120D44EE75F003A42583F583E029
:10128600C39480501B9000B775F003EF120D44EE27
:1012960075F003A42583F5837402F09000B414F06E
:1012A600A850E6FFFD3395E0FC9000B575F003ED20
:1012B600120D44EC75F003A42583F583E0FE90003F
:1012C600B675F003ED120D44EC75F003A42583F515
:1012D60083EEF0EF3395E0FE9000B575F003EF1264
:1012E6000D44EE75F003A42583F5837494F006028D
:0212F6001203E1
:0312F8000550227C
:02233B0015503B
:0A233D009000B4E0A850F6FFE4F0B1
:032347000550221C
:1022AB0090003174FFF0A37423F0A3743BF0900003
:0D22BB002E74FFF0A37411F0A374D4F02270
:10206300EF600764016003BF0233EFFD3395E0FCCB
:102073009000B775F003ED120D44EC75F003A42541
:1020830083F583E0FE9000B775F003ED120D44EC89
:0F20930075F003A42583F583E4F0AF06227F03E5
:0120A200221B
:101119004100000A41002A0A41006E0A0428000021
:101129000000012D004600680000FFFF8FFFC10D80
:10113900C105C108C101C10E60240005FF23EEFFEE
:1011490023EEFF23EEFF23EEFF23EEFF23EEFF2323
:10115900EEFF23EEFF23EEFF23EEFF23EEFF23EE48
:101169006036002BFF23EEFF23EEFF23E8FF23EE7B
:10117900FF23E8FF23EEFF23E8FF23EEFF23EEFF23
:1011890023EEFF23E8FF23E8FF23E8FF23E8FF23FB
:0A119900EEFF23EEFF23EEFF23EE2E
:0123EE0022CC
:0323E8007F002251
:101F5300438E805389F07BE07A28790178009017CB
:101F63003D120D28121F9AEFF404F58A7BE07A28BC
:101F73007901780090173D120D28121F9AC3E49F30
:101F8300FFE49EFE74019DFDE49CFC7808120D1491
:071F93008F8CD28CD2A92231
:03000B00021F01D0
:041F0100C0E0C0D0AC
:101F0500D5220A75224C300D02052DD20DA2037281
:101F15000450361524E5247030852624D207300A6E
:101F250017E52760071527438F01801D538FFEC2D4
:101F3500B5D52F15C20A80110525E525D394064090
:091F450008C203E52C6002D2067B
:051F4E00D0D0D0E0320C
:101EAE00300E47C20E90173D120D287810120D14E9
:101EBE008E4D8F4E900003E0FEA3E0FFE4FCFD7B11
:101ECE0019FAF9F8120BE4C006C007AE4DAF4EABCF
:101EDE0007AA06E4F9F8D007D006121F9A78031263
:101EEE000D14900066EEF0A3EFF0900066E0FEA3F6
:021EFE00E0FF03
:011F000022BE
:0923B400900068E0FEA3E0FF22A6
:0923BD00900068EEF0A3EFF0229D
:10231B0090006CEEF0A3EFF090006AECF0A3EDF000
:01232B00228F
:0323EB00C2B42257
:03003B0002194166
:10194100C0E0C083C082C0D075D000C004C005C053
:0319510006C007C6
:1019540030DF04C2DF807D30DA04C2DA807630D929
:101964003DC2D9AFFBEFFEADEB7C00E42DFFEC3EB6
:1019740020000E900001F0A3EFF075DB11D200807F
:1019840053FE900001E0FCA3E0FDC3EF9DFFEE9C3D
:10199400A3F0A3EFF075DB00C200D20E803630D87E
:1019A40033C2D8900068E07002A3E06022B2B49021
:1019B400006AE0FEA3E0F5EAEEF5FAA3E0FEA3E098
:1019C400FF90006BE02FF090006AE03EF08005C2CB
:0419D400B453DAFE30
:1019D800D007D006D005D004D0D0D082D083D0E0B4
:0119E80032CC
:0623D900121F53D2AF22D7
:101C26003004047F0180027F00200A047E018002C6
:101C36007E00EE5F6074E52EC39523506830023651
:101C4600752701E52E131313541FAB30AA31A932A1
:101C5600F582758300120B02FFE52E540704FEEF92
:101C6600A806088002C333D8FC30D705752F038039
:101C76002F752F01802AAB30AA31A93275F002E503
:101C86002EA4F58285F083120B02F527E52E75F05A
:101C960002A429F9EA35F0FA900001120B02F52F99
:0A1CA600052ED20A22C204438F105B
:011CB0002211
:10142100900000E014F0701F740AF0D20590002AB9
:10143100E014F07012740AF0D20890006EE014F01B
:101441007005740AF0D20190002BA3E0FAA3E0F931
:10145100120D5090002EA3E0FAA3E0F9120D509066
:10146100003AA3E0FAA3E0F9120D50900046A3E080
:10147100FAA3E0F9120D50900055A3E0FAA3E0F9A8
:10148100120D5090005EA3E0FAA3E0F9120D509006
:10149100004CA3E0FAA3E0F9120D50EF600C9000AC
:1014A1001DA3E0FAA3E0F9120D5090004FA3E0FA5A
:1014B100A3E0F9120D50EF600E900020A3E0FAA313
:1014C100E0F9120D50D20B900029E0D3940040189E
:1014D100E014F0703030090C900023A3E0FAA3E08F
:1014E100F9120D50D20C801D900052A3E0FAA3E036
:1014F100F9120D50EF600E900023A3E0FAA3E0F97A
:10150100120D50D20C900005A3E0FAA3E0F9020DF0
:011511005089
:1019E900900040A3E0FAA3E0F9120D50900043A340
:1019F900E0FAA3E0F9120D50900034A3E0FAA3E055
:101A0900F9120D50900008A3E0FAA3E0F9120D5065
:101A1900900031A3E0FAA3E0F9120D50EF600C90A9
:101A29000011A3E0FAA3E0F9120D50900037A3E0EA
:101A3900FAA3E0F9120D50EF600C900017A3E0FA39
:101A4900A3E0F9120D50900049A3E0FAA3E0F912BE
:101A59000D50EF600C90001AA3E0FAA3E0F9120D03
:101A69005030060EC206900026A3E0FAA3E0F91250
:031A79000D5022EB
:1020A30090000BA3E0FAA3E0F9120D5090003DA3BA
:1020B300E0FAA3E0F9120D50EF600C900014A3E0D6
:1020C300FAA3E0F9120D50900058A3E0FAA3E0F947
:0F20D300120D5090005BA3E0FAA3E0F9020D504C
:1021B600AF2BAE2AAD29AC28900061120D389000E5
:1021C60065E52DF0E4F52BF52AF529F528F52D9092
:0B21D600000EA3E0FAA3E0F9020D5098
:1020E200300705C207121C26300D05C20D1214213D
:1020F200300505C2051219E9300805C2081220A3ED
:10210200300105C2011221B6E52B2401F52BE4357D
:0E2112002AF52AE43529F529E43528F5282296
:101DB9008B338A348935EFB40C005070901DCCF800
:101DC900282873021DF0021DF5021DFA021DFF02EB
:101DD9001E04021E09021E0E021E13021E18021EF6
:101DE9001D021E22021E27900005803590000880E2
:101DF9003090000B802B90000E80269000118021DE
:101E0900900017801C900014801790001A8012907F
:101E1900001D800D90002080089000238003900011
:0D1E290026E533F0A3E534F0A3E535F02203
:0723C6007B017A007961221E
:0811A3004100C3004100C2003D
:0E23860020A40A9000C37401F09000C2F0225F
:02234A0015502C
:0A234C009000C3E0A850F6FFE4F093
:032356000550220D
:1022C80090003D74FFF0A37423F0A3744AF09000CB
:0D22D8003A74FFF0A37423F0A37486F02283
:0223590015501D
:0A235B009000C2E0A850F6FFE4F085
:03236500055022FE
:1012FB0000C400DC00F701060126014A01720188D7
:10130B0001B801EE020B024B029302E403100370CF
:10131B0003DC04160497052605C800DC00F701154D
:10132B000126014A0172019F01B801EE022A024B0C
:10133B00029302E4033F037003DC04550497052674
:10134B0005C8067D00F701150137014A0172019F9F
:10135B0001D201EE022A026E029302E4033F03A4C0
:10136B0003DC045504DD057505C8067D0749010638
:10137B000126014A015D018801B801EE020B024B07
:10138B00029302BA0310037003DC041604970526BC
:10139B000575062006E007B80126014A017201888F
:1013AB0001B801EE022A024B029302E40310037010
:1013BB0003DC04550497052605C8062006E007B88C
:1013CB0008AA014A0172019F01B801EE022A026EBE
:1013DB00029302E4033F037003DC045504DD05268E
:1013EB0005C8067D06E007B808AA09B9015D0188A2
:1013FB0001B801D2020B024B029302BA0310037025
:10140B0003A40416049705260575062006E0074974
:06141B00082D092D0A4D09
:1011AB004D00A6030000000000000000000000003E
:061897008F338D348B3508
:10189D00122394EF60037F0122E535D394004006B7
:1018AD00E53594114028E535D394174006E5359478
:1018BD0021401BE535D394274006E5359431400E84
:1018CD00E535D394375007E533C394F950037F03BF
:1018DD0022E535603DC4540F75F007A4FDACF0E56D
:1018ED003375F015A42DFFE5F03CFEE53554077C6E
:1018FD00002FFFEC3EFEEF25E0FFEE33FE74112FBF
:10190D00F58274EA3EF583E493F537740193F53867
:10191D008005E4F537F538AF367E007C017D771212
:10192D000B51AD341C120B63AD07AC06AF38AE379F
:03193D00121E3641
:011940002284
:04080000155015502A
:10080400122394EF70047F0180027F009000A6E021
:10081400FEB402047D0180027D00ED5F6003020AE4
:10082400FDEEB40316E49000A4F0A3F09000AFF042
:10083400A3F0A3F0A3F0C20F020AFD9000A7E0FF0B
:10084400B4F3047E0180027E00EFB4F1047F0180E2
:10085400027F00EF4E603E9000A9E0FE75F06484D4
:10086400FFEE75F00A8475F00A84ADF0E075F00AC5
:1008740084ABF075380A9000A8E02407F53990009D
:10088400A3E0FEC4540F240AF53A753B0AEE54075C
:10089400F53C1222519000A7E0FFB4F3047E0180DE
:1008A400027E00EFB4F2047F0180027F00EF4E70FD
:1008B400030209569000A9E0FD7C007E177F7012A8
:1008C4000B63A850A607E6F975F002A4FFC39000D5
:1008D400B2E09F9000B1E095F05070E0FEA3E0FF1D
:1008E4007C007D0B120B51E9FBFD120B63A8500831
:1008F400A6079000B1E475F001120BCEFED3E5F02B
:100904009BEE94004018A85008E624F9FFE47EF01A
:10091400A807088005CEC313CE13D8F9801FA850AA
:1009240008E6FF740F7E00A807088005C333CE33A2
:10093400CED8F97804CEA2E713CE13D8F8A850087D
:10094400F6A85008E6FF1223CD8007E49000B1F02A
:10095400A3F09000ADE0FEA3E0FFC39000B0E09FE1
:100964009000AFE09E4003020AF7122394EF600365
:10097400020AFD9000AAE0FBA3E0FAA3E0F99000CC
:10098400AFE0FEA3E0F5828E83120B02FFD394370F
:100994005003020A92EF241024FC5079604524FE8F
:1009A4007003020A3D147003020A53240260030216
:1009B4000A819000AAE0FBA3E0FAA3E0F99000AF5B
:1009C400E475F001120BB885F082F583120B0290E6
:1009D40000A8F09000B0E004F070989000AFE0043C
:1009E400F080909000AAE0FBA3E0FAA3E0F9900065
:1009F400AFE475F001120BB885F082F583120B0297
:100A04009000A9F09000B0E004F0706E9000AFE0A8
:100A140004F00209779000AAE0FBA3E0FAA3E0F94E
:100A24009000AFE475F001120BCE85F082F58312CD
:100A34000B029000A7F00209779000AFE475F00173
:100A4400120BB8AFF09000A4F0A3EFF00209779076
:100A540000A4E0FEA3E0FF4E60129000AFEEF0A30E
:100A6400EFF0E49000A4F0A3F00209779000B0E066
:100A740004F070069000AFE004F00209779000B033
:100A8400E004F070069000AFE004F00209779000F3
:100A9400ADE0FEA3E0FFC39000B0E09F9000AFE0A4
:100AA4009E50569000AAE0FBA3E0FAA3E0F9900060
:100AB400AFE475F001120BCE85F082F583120B02C0
:100AC4009000A3F09000A8E0FFA3E0FDA3E0FBA347
:100AD400E0FAA3E0F99000AFE475F001120BCE85C3
:100AE400F082F583120B02F5369000A3E0FB121896
:090AF4009780069000A67403F03F
:050AFD00055005502228
:0F23680090004374FFF0A37408F0A37400F022F8
:101D38008B358A3689379000AAE0FBA3E0FAA3E046
:101D4800F9E5358536838537826B7008E9658270D9
:101D580003EA6583600DE49000AFF0A3F0A3F0A35D
:101D6800F0C20FEF60049000A9F0ED60049000A8A5
:101D7800F0AB35AA36A937AE02AF01EF4E60047F4B
:101D88000180027F00E539453860047E0180027ECB
:101D980000EE5F60139000AAEBF0A3EAF0A3E9F06D
:101DA800A3E538F0A3E539F0E53A60049000A7F020
:011DB8002208
:10220900BF02047E0180027E00BF01047D018002BD
:102219007D00ED4EFEBF03047D0180027D00ED4E81
:0822290060059000A6EFF02211
:0623DF009000A6E0FF22C1
:1011BB0055008E0000000000000000000000000041
:0811CB0000000100000000001B
:03004300020D5655
:100D5600C0E0C0F0C083C082C0D075D000C000C063
:100D660001C002C003C004C005C006C007E59A3032
:100D7600E144539AFD900093E0FEA3E0FFC3900088
:100D860092E09F900091E09E501F90008EE0FBA3A2
:100D9600E0FAA3E0F9A3E475F001120BCE85F08228
:100DA600F583120B02F59B800D900095E4F0900000
:100DB6008DE06002C2B7E59A20E003020F16539A4F
:100DC600FE300C0BC20C90009BE4F0A3F0D209900D
:100DD600008DE064026003020E6E900099E0FEA3AF
:100DE600E0FFA3E0FCA3E0FDC39FEC9E50719000E2
:100DF60096E0FBA3E0FAA3E0F98D828C83E59B12D3
:100E06000B2F9000A1E0FEA3E0FFC3ED9FEC9E50E8
:100E160040900099E0FCA3E0FDEF9DEE9C503290DF
:100E2600009EE0FBA3E0FAA3E0F990009BE0FEA39E
:100E3600E0FFF5828E83120B02FD900096E0FBA385
:100E4600E0FAA3E0F98F828E83120B026D6002C274
:100E56000990009CE004F0700690009BE004F0907E
:100E66000029E54FF0020F16900099E0FEA3E0FF7F
:100E7600A3E0FCA3E0FDC39FEC9E5077900096E0B4
:100E8600FBA3E0FAA3E0F98D828C83E59B120B2F7E
:100E96009000A1E0FEA3E0FFC3ED9FEC9E504690BC
:100EA6000099E0FCA3E0FDEF9DEE9C503890009E7B
:100EB600E0FBA3E0FAA3E0F990009BE0FEA3E0FFCD
:100EC600F5828E83120B02FD900096E0FBA3E0FAFA
:100ED600A3E0F98F828E83120B026D600890009B4F
:100EE60074FFF0A3F090009CE004F0700690009B65
:100EF600E004F0900099E0FEA3E0FFC390009CE0C0
:100F06009F90009BE09E400890009D7401F0D20CDB
:100F1600D007D006D005D004D003D002D001D0002F
:0B0F2600D0D0D082D083D0F0D0E032D9
:022377001550FF
:0A23790090009DE0A850F6FFE4F08C
:03238300055022E0
:0123EF0022CB
:101512008F368E358D348C3390008DE537F0700226
:10152200800343BA0190008DE0701790005E74FF53
:10153200F0A37423F0A374EFF0E4F5DBD290D29120
:101542008023C2B7AB36AA35A934A833E47F407EE4
:101552009CFDFC120C6F8F4FE54F7003754F01908D
:101562000029E54FF0759A10E47B04FAF9F8901718
:101572003D120D28120C6FAB36AA35A934A83312CE
:101582000C6FEFF404F5D7E47B04FAF9F890173DF9
:10159200120D28120C6FAB36AA35A934A833120CDF
:1015A2006FC3E49FFFE49EFE74019DFDE49CFC7802
:1015B20008120D018FD6438E1443AF01900052746E
:0B15C200FFF0A37423F0A37477F02265
:10215400900096EBF0A3EAF0A3E9F0A3ECF0A3ED72
:10216400F09000A1E53BF0A3E53CF090009EE5383B
:10217400F0A3E539F0A3E53AF0D20CE490009DF029
:012184002238
:10218500900095E0702890008DE06002D2B7900035
:102195008EEBF0A3EAF0A3E9F0E4A3F0A3F0A3EC3F
:1021A500F0A3EDF0A37401F0439A027F02227F03AE
:0121B5002207
:0B23A000900095E07002FF227F0122F8
:03000000021B9A46
:0C1B9A00787FE4F6D8FD758150021BE155
:100B0200BB010CE58229F582E5833AF583E02250A8
:100B120006E92582F8E622BBFE06E92582F8E222F2
:0D0B2200E58229F582E5833AF583E493220C
:100B2F00F8BB010DE58229F582E5833AF583E8F0FC
:100B3F00225006E92582C8F622BBFE05E92582C8A8
:020B4F00F22290
:100B5100EF8DF0A4A8F0CF8CF0A428CE8DF0A42EB8
:020B6100FE2272
:100B6300BC000BBE0029EF8DF084FFADF022E4CC76
:100B7300F875F008EF2FFFEE33FEEC33FCEE9DEC3F
:100B8300984005FCEE9DFE0FD5F0E9E4CEFD22ED85
:100B9300F8F5F0EE8420D21CFEADF075F008EF2FCF
:100BA300FFED33FD4007985006D5F0F222C398FDC0
:050BB3000FD5F0EA225D
:100BB800C5F0F8A3E028F0C5F0F8E58215827002C8
:060BC8001583E038F02265
:100BCE00A3F8E0C5F025F0F0E582158270021583DA
:060BDE00E0C838F0E82237
:100BE400E88FF0A4CC8BF0A42CFCE98EF0A42CFCB0
:100BF4008AF0EDA42CFCEA8EF0A4CDA8F08BF0A42E
:100C04002DCC3825F0FDE98FF0A42CCD35F0FCEB8C
:100C14008EF0A4FEA9F0EB8FF0A4CFC5F02ECD3951
:0F0C2400FEE43CFCEAA42DCE35F0FDE43CFC22BE
:100C330075F008758200EF2FFFEE33FECD33CDCC78
:100C430033CCC58233C5829BED9AEC99E5829840FB
:100C53000CF582EE9BFEED9AFDEC99FC0FD5F0D6D8
:100C6300E4CEFBE4CDFAE4CCF9A88222B800C1B902
:100C73000059BA002DEC8BF084CFCECDFCE5F0CB40
:100C8300F97818EF2FFFEE33FEED33FDEC33FCEB79
:100C930033FB10D703994004EB99FB0FD8E5E4F934
:100CA300FA227818EF2FFFEE33FEED33FDEC33FC21
:100CB300C933C910D7059BE99A4007EC9BFCE99A15
:100CC300F90FD8E0E4C9FAE4CCFB2275F010EF2F5A
:100CD300FFEE33FEED33FDCC33CCC833C810D7075A
:100CE3009BEC9AE899400AED9BFDEC9AFCE899F895
:0E0CF3000FD5F0DAE4CDFBE4CCFAE4C8F92228
:101F9A00C2D5E830E70FB2D5E4C39BFBE49AFAE472
:101FAA0099F9E498F8EC30E717B2D5121FD0120C61
:101FBA006FE4C39BFBE49AFAE499F9E498F8800386
:101FCA00120C6F30D50DE4C39FFFE49EFEE49DFD25
:041FDA00E49CFC2265
:100D0100E8600FECC313FCED13FDEE13FEEF13FFD0
:030D1100D8F122F4
:100D1400E86010ECA2E713FCED13FDEE13FEEF13F5
:040D2400FFD8F022E2
:100D2800E493FC740193FD740293FE740393FF2211
:0C0D3800ECF0A3EDF0A3EEF0A3EFF0222E
:0C0D4400A42582F582E5F03583F58322BA
:060D50008A838982E4732E
:101BA6000217EBE493A3F8E493A34003F68001F253
:101BB60008DFF48029E493A3F85407240CC8C33340
:101BC600C4540F4420C8834004F456800146F6DF0F
:101BD600E4800B01020408102040809010ACE47EE3
:101BE600019360BCA3FF543F30E509541FFEE49304
:101BF600A360010ECF54C025E060A840B8E493A3CB
:101C0600FAE493A3F8E493A3C8C582C8CAC583CAF5
:101C1600F0A3C8C582C8CAC583CADFE9DEE780BEAD
:0111D300001B
:00000001FF
