:10188A0000A8C0003F065B4F666D7D077F6F777CBF
:10189A00395E79713D76061E753815545C736B5046
:1018AA006D783E1C2A766E5B5F7C585E7B71408049
:0218BA000063C9
:100E66000208000002190001020F00010118020227
:070E76000A00010216AA5553
:1019C000AF13851433EF64016003BF02077519007C
:0A19D000751A0222751900751A013C
:0119DA0022EA
:1011B700851333851434E5337073E5347002807218
:1011C700E534B4011575381D753928753A26753B10
:1011D7001D753C2A7B287D0D804FE534B4021575BB
:1011E7003818753920753A1C753B28753C2A7B1BC6
:1011F7007D0B8035E534B4031775381275391475CE
:101207003A24753B11753C2A7B287D117F1C80375A
:10121700E5346404703475381B75391D753A1175DA
:101227003B2A753C2A7B247D0E7F2A801AE533B43E
:10123700011875381D753912753A15753B1E753CC1
:0A1247001C7B1E7D0A7F1712194957
:01125100227A
:1019F600E4FF1217CDBF01080509E50970020508C5
:011A060022BD
:1012E500E51A64014519700CE5106401450F700499
:1012F5007F558020E51A64014519700EE510B4FF8D
:1013050009E50FB4FF047FAA800AE51A64024519AE
:101315007005AF18121A8FAE0FAF107CFF7DFF124C
:10132500084F8E0F8F10E518C39480500FE50B649E
:1013350001450A7007E51825E0F51822E518D3944C
:10134500014011E50BB4FF0CE50AB4FF07E518C32E
:1013550013F51822E51864806005E518B4010FAE91
:0F1365000AAF0B7CFF7DFF12084F8E0A8F0B2201
:10196900121A36BF0116750CAA750D55750E017B35
:0C197900007A00790C7D037C001218ED50
:01198500223F
:10162600E4F537FF7EC27D01FC1210541219DB125D
:1016360019861219A37D07E4FF121A6D7538007515
:101646003900753A16753B00753C027B007A0079C5
:10165600117D057C001218BC7BFF7A1979697F061B
:101666001215A97BFF7A1979F67F041215A97BFF5B
:101676007A1979C07F0A1215A97BFF7A1179B77F8B
:10168600031215A97BFF7A1279E57F021215A912BA
:071696001A9512184C80FBAD
:100E7D005C00710007000000000000000000000091
:100E8D000000000000000000000000000000004114
:070E9D00006F644100700AC0
:040BC400151E151EC7
:100BC80090006FE014F0D36480948050107464F047
:100BD800A3E014F0648094805003740AF0E4F58074
:100BE80090008CE0FFB40800505F900BF9F82828BB
:100BF80073020C11020C17020C1D020C23020C29A3
:100C0800020C33020C3D020C47C2A3C2A28016C2DA
:100C1800A3C2A2801AC2A3C2A2801EC2A3C2A2807B
:100C280022C2A3D2A2C2A1C2A08020C2A3D2A2C2C1
:100C3800A1D2A08016C2A3D2A2D2A1C2A0800CC207
:100C4800A3D2A2D2A1D2A08002D2A3C3EF6480947F
:100C580088504790008CE0FF3395E0FE747C2FF5B8
:100C68008274003EF583E0FD900070E0FCD3ED64F3
:100C780080F8EC648098402074732FF58274003EED
:100C8800F583E0FF3395E0FE748E2FF58274183EED
:100C9800F583E493F580806E806990008CE0FF64B2
:100CA800087060EF3395E0FE74732FF58274003E90
:100CB800F583E0A81EF6A81E08E4F6A81E08E6FFBD
:100CC800C39408503774842FF582E43400F583E028
:100CD800FF900070E0FED3EF6480F8EE64809850D7
:100CE80015A81E08E6FF7401A807088002C333D8B8
:100CF800FCF4A81E56F6A81E080680BFA81EE6F536
:100D0800808003E4F580900072E0FF90008CE0049E
:100D1800FEF0D3EF6480F8EE6480984015E0D36469
:100D280080948850057408F08008900071E0900065
:020D38008CF03D
:050D3A00051E051E224C
:1019DB00E4F5937594FF5395F043960F90002B7499
:0B19EB00FFF0A3740BF0A374C4F02203
:091A6D00900071EFF0A3EDF022EE
:10194900900073EFF0A3EDF0A3EBF0A3E538F0A35B
:10195900E539F0A3E53AF0A3E53BF0A3E53CF02235
:061A8F0090007BEFF02245
:10137400EFF5823395E0F583E582F44583600590CB
:10138400007CEFF0EDFF3395E0FEEFF44E60059046
:10139400007DEDF0EBFF3395E0FEEFF44E60059039
:1013A400007EEBF0AF40EF3395E0FEEFF44E6006C5
:1013B40090007FE540F0AF41EF3395E0FEEFF44E4F
:1013C4006006900080E541F0AF42EF3395E0FEEF18
:1013D400F44E6006900081E542F0AF43EF3395E0B0
:1013E400FEEFF44E6006900082E543F0AF44EF3325
:0F13F40095E0FEEFF44E6006900083E544F02292
:10140300EFF5823395E0F583E582F445836005903B
:10141300008BEFF0EDFF3395E0FEEFF44E600590A7
:10142300008AEDF0EBFF3395E0FEEFF44E6005909C
:101433000089EBF0AF48EF3395E0FEEFF44E600622
:10144300900088E548F0AF49EF3395E0FEEFF44EA6
:101453006006900087E549F0AF4AEF3395E0FEEF71
:10146300F44E6006900086E54AF0AF4BEF3395E00B
:10147300FEEFF44E6006900085E54BF0AF4CEF3382
:0F14830095E0FEEFF44E6006900084E54CF022F9
:100EA4004100A4004900A5949400949400949400F3
:040EB4004100A31E38
:020D3F00151E7F
:100D410020B2069000A5E014F020B3069000A8E0C0
:100D510014F02097069000ABE014F09000A3E0148B
:100D6100F06003020E63741EF0A81EE4F6A81EE6EE
:100D7100FFC3648094834003020E63EF3395E0FE6A
:100D81009000A575F003EF1209D7EE75F003A425C5
:100D910083F583E0C39480503B9000A675F003EF88
:100DA1001209D7EE75F003A42583F583E0D394806F
:100DB100405EE6FF3395E0FE9000A775F003EF1269
:100DC10009D7EE75F003A42583F5837401F0900033
:100DD100A4F0803CA81EE6FF3395E0FE9000A675C6
:100DE100F003EF1209D7EE75F003A42583F583E034
:100DF100C39480501B9000A775F003EF1209D7EE42
:100E010075F003A42583F5837402F09000A414F017
:100E1100A81EE6FFFD3395E0FC9000A575F003EDFB
:100E21001209D7EC75F003A42583F583E0FE900049
:100E3100A675F003ED1209D7EC75F003A42583F52F
:100E410083EEF0EF3395E0FE9000A575F003EF120D
:100E510009D7EE75F003A42583F5837494F0060297
:020E61000D6E14
:030E6300051E2247
:021A1800151E99
:0A1A1A009000A4E0A81EF6FFE4F01F
:031A2400051E227A
:1019860090003174FFF0A3741AF0A37418F090005D
:0D1996002E74FFF0A3740DF0A3743FF02237
:1017CD00EF600764016003BF0233EFFD3395E0FC6A
:1017DD009000A775F003ED1209D7EC75F003A42561
:1017ED0083F583E0FE9000A775F003ED1209D7ECA9
:0F17FD0075F003A42583F583E4F0AF06227F0384
:01180C0022B9
:100EB8004100000A41002A0A41006E0A0428000085
:100EC8000000012D004600680000FFFF8FFFC10DE4
:100ED800C105C108C101C10E60240005FF1AA1FFA8
:100EE8001AA1FF1AA1FF1AA1FF1AA1FF1AA1FF1A3E
:100EF800A1FF1AA1FF1AA1FF1AA1FF1AA1FF1AA1A7
:100F08006036002BFF1AA1FF1AA1FF1A9BFF1AA136
:100F1800FF1A9BFF1AA1FF1A9BFF1AA1FF1AA1FF34
:100F28001AA1FF1A9BFF1A9BFF1A9BFF1A9BFF1A15
:0A0F3800A1FF1AA1FF1AA1FF1AA1E0
:011AA1002222
:031A9B007F0022A7
:10174200438E805389F07BE07A28790178009018E3
:101752008A1209BB121789EFF404F58A7BE07A2812
:101762007901780090188A1209BB121789C3E49F85
:10177200FFE49EFE74019DFDE49CFC78081209A71B
:071782008F8CD28CD2A9224A
:03000B000216F0EA
:0416F000C0E0C0D0C6
:1016F400D5220A75224C300D02052DD20DA203729B
:101704000450361524E5247030852624D207300A87
:1017140017E52760071527438F01801D538FFEC2ED
:10172400B5D52F15C20A80110525E525D3940640A9
:0917340008C203E52C6002D20694
:05173D00D0D0D0E03225
:10169D00300E47C20E90188A1209BB78101209A796
:1016AD008E1B8F1C900003E0FEA3E0FFE4FCFD7B8E
:1016BD0019FAF9F8120877C006C007AE1BAF1CABBC
:1016CD0007AA06E4F9F8D007D00612178978031295
:1016DD0009A7900066EEF0A3EFF0900066E0FEA380
:0216ED00E0FF1C
:0116EF0022D8
:091A7600900068E0FEA3E0FF22ED
:091A7F00900068EEF0A3EFF022E4
:101A070090006CEEF0A3EFF090006AECF0A3EDF01D
:011A170022AC
:031A9E00C2B422AD
:03003B0002110FA0
:10110F00C0E0C083C082C0D075D000C004C005C08D
:03111F0006C00700
:1011220030DF04C2DF807D30DA04C2DA807630D963
:101132003DC2D9AFFBEFFEADEB7C00E42DFFEC3EF0
:1011420020000E900001F0A3EFF075DB11D20080B9
:1011520053FE900001E0FCA3E0FDC3EF9DFFEE9C77
:10116200A3F0A3EFF075DB00C200D20E803630D8B8
:1011720033C2D8900068E07002A3E06022B2B4905B
:10118200006AE0FEA3E0F5EAEEF5FAA3E0FEA3E0D2
:10119200FF90006BE02FF090006AE03EF08005C205
:0411A200B453DAFE6A
:1011A600D007D006D005D004D0D0D082D083D0E0EE
:0111B6003206
:061A9500121742D2AF223D
:10151E003004047F0180027F00200A047E018002D5
:10152E007E00EE5F6074E52EC39523506830023660
:10153E00752701E52E131313541FAB30AA31A932B0
:10154E00F582758300120800FFE52E540704FEEFA6
:10155E00A806088002C333D8FC30D705752F038048
:10156E002F752F01802AAB30AA31A93275F002E512
:10157E002EA4F58285F083120800F527E52E75F06E
:10158E0002A429F9EA35F0FA900001120800F52FAD
:0A159E00052ED20A22C204438F106A
:0115A8002220
:100F6300900000E014F0701F740AF0D20590002A7C
:100F7300E014F07012740AF0D20890006EE014F0DE
:100F83007005740AF0D20190002BA3E0FAA3E0F9F4
:100F93001209E390002EA3E0FAA3E0F91209E3900B
:100FA300003AA3E0FAA3E0F91209E3900046A3E0B4
:100FB300FAA3E0F91209E3900055A3E0FAA3E0F9DC
:100FC3001209E390005EA3E0FAA3E0F91209E390AB
:100FD300004CA3E0FAA3E0F91209E3EF600C9000E0
:100FE3001DA3E0FAA3E0F91209E390004FA3E0FA8E
:100FF300A3E0F91209E3EF600E900020A3E0FAA347
:10100300E0F91209E3D20B900029E0D394004018D1
:10101300E014F0703030090C900023A3E0FAA3E051
:10102300F91209E3D20C801D900052A3E0FAA3E069
:10103300F91209E3EF600E900023A3E0FAA3E0F9AD
:101043001209E3D20C900005A3E0FAA3E0F9020928
:01105300E3B9
:10125200900040A3E0FAA3E0F91209E3900043A34F
:10126200E0FAA3E0F91209E3900034A3E0FAA3E064
:10127200F91209E3900008A3E0FAA3E0F91209E3E6
:10128200900031A3E0FAA3E0F91209E3EF600C90B9
:101292000011A3E0FAA3E0F91209E3900037A3E0FA
:1012A200FAA3E0F91209E3EF600C900017A3E0FA49
:1012B200A3E0F91209E3900049A3E0FAA3E0F912CE
:1012C20009E3EF600C90001AA3E0FAA3E0F9120917
:1012D200E330060EC206900026A3E0FAA3E0F9125C
:0312E20009E322FB
:10180D0090000BA3E0FAA3E0F91209E390003DA3C9
:10181D00E0FAA3E0F91209E3EF600C900014A3E0E5
:10182D00FAA3E0F91209E3900058A3E0FAA3E0F956
:0F183D001209E390005BA3E0FAA3E0F90209E3CC
:10191E00AF2BAE2AAD29AC289000611209CB9000F6
:10192E0065E52DF0E4F52BF52AF529F528F52D9032
:0B193E00000EA3E0FAA3E0F90209E3A9
:10184C00300705C20712151E300D05C20D120F63AD
:10185C00300505C205121252300805C20812180DC7
:10186C00300105C20112191EE52B2401F52BE435BC
:0E187C002AF52AE43529F529E43528F5282235
:1015A9008B338A348935EFB40C0050709015BCF830
:1015B9002828730215E00215E50215EA0215EF0263
:1015C90015F40215F90215FE021603021608021691
:1015D9000D0216120216179000058035900008803A
:1015E9003090000B802B90000E80269000118021F6
:1015F900900017801C900014801790001A80129098
:10160900001D800D90002080089000238003900029
:0D16190026E533F0A3E534F0A3E535F0221B
:071A88007B017A0079612265
:080F42004100AF004100AE00C8
:0E1A540020A40A9000AF7401F09000AEF022C2
:021A2700151E8A
:0A1A29009000AFE0A81EF6FFE4F005
:031A3300051E226B
:1019A30090003D74FFF0A3741AF0A37427F0900025
:0D19B3003A74FFF0A3741AF0A37454F022EC
:021A3600151E7B
:0A1A38009000AEE0A81EF6FFE4F0F7
:031A4200051E225C
:100F4A0055008E00000000000000000000000000B4
:080F5A0000000100000000008E
:030043000209E9C6
:1009E900C0E0C0F0C083C082C0D075D000C000C0D4
:1009F90001C002C003C004C005C006C007E59A30A3
:100A0900E144539AFD900093E0FEA3E0FFC39000F8
:100A190092E09F900091E09E501F90008EE0FBA312
:100A2900E0FAA3E0F9A3E475F00112086185F08208
:100A3900F583120800F59B800D900095E4F0900075
:100A49008DE06002C2B7E59A20E003020BA9539A30
:100A5900FE300C0BC20C90009BE4F0A3F0D209907D
:100A6900008DE064026003020B01900099E0FEA38F
:100A7900E0FFA3E0FCA3E0FDC39FEC9E5071900052
:100A890096E0FBA3E0FAA3E0F98D828C83E59B1243
:100A9900082D9000A1E0FEA3E0FFC3ED9FEC9E505E
:100AA90040900099E0FCA3E0FDEF9DEE9C50329050
:100AB900009EE0FBA3E0FAA3E0F990009BE0FEA30F
:100AC900E0FFF5828E83120800FD900096E0FBA3FB
:100AD900E0FAA3E0F98F828E831208006D6002C2EA
:100AE9000990009CE004F0700690009BE004F090EF
:100AF9000029E51DF0020BA9900099E0FEA3E0FF93
:100B0900A3E0FCA3E0FDC39FEC9E5077900096E024
:100B1900FBA3E0FAA3E0F98D828C83E59B12082DF3
:100B29009000A1E0FEA3E0FFC3ED9FEC9E5046902C
:100B39000099E0FCA3E0FDEF9DEE9C503890009EEB
:100B4900E0FBA3E0FAA3E0F990009BE0FEA3E0FF3D
:100B5900F5828E83120800FD900096E0FBA3E0FA6F
:100B6900A3E0F98F828E831208006D600890009BC4
:100B790074FFF0A3F090009CE004F0700690009BD5
:100B8900E004F0900099E0FEA3E0FFC390009CE030
:100B99009F90009BE09E400890009D7401F0D20C4C
:100BA900D007D006D005D004D003D002D001D000A0
:0B0BB900D0D0D082D083D0F0D0E0324A
:021A4500151E6C
:0A1A470090009DE0A81EF6FFE4F0F9
:031A5100051E224D
:011AA2002221
:101054008F368E358D348C3390008DE537F07002E9
:10106400800343BA0190008DE0701790005E74FF16
:10107400F0A3741AF0A374A2F0E4F5DBD290D29139
:101084008023C2B7AB36AA35A934A833E47F407EA7
:101094009CFDFC1209028F1DE51D7003751D019056
:1010A4000029E51DF0759A10E47B04FAF9F890180C
:1010B4008A1209BB120902AB36AA35A934A8331225
:1010C4000902EFF404F5D7E47B04FAF9F890188ADE
:1010D4001209BB120902AB36AA35A934A833120986
:1010E40002C3E49FFFE49EFE74019DFDE49CFC7832
:1010F400081209948FD6438E1443AF0190005274A2
:0B110400FFF0A3741AF0A37445F02262
:1018BC00900096EBF0A3EAF0A3E9F0A3ECF0A3ED13
:1018CC00F09000A1E53BF0A3E53CF090009EE538DC
:1018DC00F0A3E539F0A3E53AF0D20CE490009DF0CA
:0118EC0022D9
:1018ED00900095E0702890008DE06002D2B79000D6
:1018FD008EEBF0A3EAF0A3E9F0E4A3F0A3F0A3ECE0
:10190D00F0A3EDF0A37401F0439A027F02227F034E
:01191D0022A7
:0B1A6200900095E07002FF227F01223F
:0300000002149255
:0C149200787FE4F6D8FD75814C0214D977
:10080000BB010CE58229F582E5833AF583E02250AD
:1008100006E92582F8E622BBFE06E92582F8E222F7
:0D082000E58229F582E5833AF583E4932211
:10082D00F8BB010DE58229F582E5833AF583E8F001
:10083D00225006E92582C8F622BBFE05E92582C8AD
:02084D00F22295
:10084F00EF8DF0A4A8F0CF8CF0A428CE8DF0A42EBD
:02085F00FE2277
:10086100A3F8E0C5F025F0F0E5821582700215834A
:06087100E0C838F0E822A7
:10087700E88FF0A4CC8BF0A42CFCE98EF0A42CFC20
:100887008AF0EDA42CFCEA8EF0A4CDA8F08BF0A49E
:100897002DCC3825F0FDE98FF0A42CCD35F0FCEBFD
:1008A7008EF0A4FEA9F0EB8FF0A4CFC5F02ECD39C2
:0F08B700FEE43CFCEAA42DCE35F0FDE43CFC222F
:1008C60075F008758200EF2FFFEE33FECD33CDCCE9
:1008D60033CCC58233C5829BED9AEC99E58298406C
:1008E6000CF582EE9BFEED9AFDEC99FC0FD5F0D649
:1008F600E4CEFBE4CDFAE4CCF9A88222B800C1B973
:100906000059BA002DEC8BF084CFCECDFCE5F0CBB0
:10091600F97818EF2FFFEE33FEED33FDEC33FCEBE9
:1009260033FB10D703994004EB99FB0FD8E5E4F9A4
:10093600FA227818EF2FFFEE33FEED33FDEC33FC91
:10094600C933C910D7059BE99A4007EC9BFCE99A85
:10095600F90FD8E0E4C9FAE4CCFB2275F010EF2FCA
:10096600FFEE33FEED33FDCC33CCC833C810D707CA
:100976009BEC9AE899400AED9BFDEC9AFCE899F805
:0E0986000FD5F0DAE4CDFBE4CCFAE4C8F92298
:10178900C2D5E830E70FB2D5E4C39BFBE49AFAE48B
:1017990099F9E498F8EC30E717B2D51217BF120996
:1017A90002E4C39BFBE49AFAE499F9E498F880030C
:1017B90012090230D50DE4C39FFFE49EFEE49DFDAE
:0417C900E49CFC227E
:10099400E8600FECC313FCED13FDEE13FEEF13FF41
:0309A400D8F12265
:1009A700E86010ECA2E713FCED13FDEE13FEEF1366
:0409B700FFD8F02253
:1009BB00E493FC740193FD740293FE740393FF2282
:0C09CB00ECF0A3EDF0A3EEF0A3EFF0229F
:0C09D700A42582F582E5F03583F583222B
:0609E3008A838982E4739F
:10149E00021626E493A3F8E493A34003F68001F228
:1014AE0008DFF48029E493A3F85407240CC8C3334F
:1014BE00C4540F4420C8834004F456800146F6DF1E
:1014CE00E4800B0102040810204080900E66E47E3A
:1014DE00019360BCA3FF543F30E509541FFEE49313
:1014EE00A360010ECF54C025E060A840B8E493A3DA
:1014FE00FAE493A3F8E493A3C8C582C8CAC583CA05
:10150E00F0A3C8C582C8CAC583CADFE9DEE780BEBC
:010F6200008E
:00000001FF
